:020000040800F2
:1000000000800120A12200083D1100083F110008D6
:1000100041110008431100084511000800000000CC
:100020000000000000000000000000004711000870
:1000300049110008000000004B1100084D11000894
:10004000F1220008F1220008F1220008F122000844
:10005000F1220008F1220008F1220008F122000834
:10006000F1220008F1220008F1220008F122000824
:10007000F1220008F1220008F1220008F122000814
:10008000F1220008F1220008F1220008000000001F
:10009000000000000000000000000000F122000845
:1000A000F1220008F1220008F1220008F1220008E4
:1000B000F1220008F1220008F1220008F1220008D4
:1000C000F1220008F1220008F1220008F1220008C4
:1000D000F1220008F1220008F122000800000000CF
:1000E000F1220008F1220008F122000800000000BF
:1000F000000000000000000000000000F1220008E5
:1001000000000000F1220008F1220008F12200089E
:1001100000000000000000000000000000000000DF
:10012000F1220008F1220008F1220008F122000863
:10013000F1220008000000000000000000000000A4
:10014000000000000000000000000000F122000894
:10015000F1220008F1220008F1220008F122000833
:10016000F1220008F1220008000000000000000059
:10017000000000000000000000000000000000007F
:1001800000000000F1220008000000000000000054
:04019000F122000850
:1001A00001F0FF01102A2BDB10F0070F08D010F828
:1001B000013B013A8B422DD010F0070F42B3F6D12C
:1001C000F0B441EA012141EA014122F007047FF045
:1001D00000070023F0E80256083C85EA010586EA9C
:1001E000010685FA47F5A3FA87F586FA47F6A5FAD8
:1001F00087F68EB9EED1F0BC01F0FF0102F00702E4
:1002000032B110F8013B013A83EA010313B1F8D18E
:100210000020704701387047002D06BF354603386F
:10022000073815F0010F07D1013015F4807F02BFA8
:10023000013015F4C03F0130F0BC0138704700BFF9
:1002400081F0004102E000BF83F0004330B54FEA87
:1002500041044FEA430594EA050F08BF90EA020FF4
:100260001FBF54EA000C55EA020C7FEA645C7FEA87
:10027000655C00F0E2804FEA5454D4EB5555B8BFAA
:100280006D420CDD2C4480EA020281EA030382EA1B
:10029000000083EA010180EA020281EA0303362DAD
:1002A00088BF30BD11F0004F4FEA01314FF4801C80
:1002B0004CEA113102D0404261EB410113F0004F92
:1002C0004FEA03334CEA133302D0524263EB430349
:1002D00094EA050F00F0A780A4F10104D5F1200EE7
:1002E0000DDB02FA0EFC22FA05F2801841F1000142
:1002F00003FA0EF2801843FA05F359410EE0A5F116
:1003000020050EF1200E012A03FA0EFC28BF4CF046
:10031000020C43FA05F3C01851EBE37101F00045FC
:1003200007D54FF0000EDCF1000C7EEB00006EEB09
:100330000101B1F5801F1BD3B1F5001F0CD3490893
:100340005FEA30004FEA3C0C04F101044FEA4452EA
:1003500012F5800F80F09A80BCF1004F08BF5FEA71
:10036000500C50F1000041EB045141EA050130BD51
:100370005FEA4C0C404141EB0101013C28BFB1F563
:10038000801FE9D291F0000F04BF01460020B1FAAE
:1003900081F308BF2033A3F10B03B3F120020CDA81
:1003A0000C3208DD02F1140CC2F10C0201FA0CF05F
:1003B00021FA02F10CE002F11402D8BFC2F1200CC4
:1003C00001FA02F120FA0CFCDCBF41EA0C0190407A
:1003D000E41AA2BF01EB0451294330BD6FEA0404C3
:1003E0001F3C1CDA0C340EDC04F11404C4F12002AE
:1003F00020FA04F001FA02F340EA030021FA04F3C0
:1004000045EA030130BDC4F10C04C4F1200220FA16
:1004100002F001FA04F340EA0300294630BD21FA54
:1004200004F0294630BD94F0000F83F4801306BF1A
:1004300081F480110134013D4EE77FEA645C18BF0E
:100440007FEA655C29D094EA050F08BF90EA020FA5
:1004500005D054EA000C04BF1946104630BD91EA9D
:10046000030F1EBF0021002030BD5FEA545C05D1A0
:100470004000494128BF41F0004130BD14F58004DF
:100480003CBF01F5801130BD01F0004545F0FE4153
:1004900041F470014FF0000030BD7FEA645C1ABF88
:1004A000194610467FEA655C1CBF0B46024650EABF
:1004B000013406BF52EA033591EA030F41F40021EB
:1004C00030BD00BF90F0000F04BF0021704730B571
:1004D0004FF4806404F132044FF000054FF0000146
:1004E00050E700BF90F0000F04BF0021704730B507
:1004F0004FF4806404F1320410F0004548BF4042DC
:100500004FF000013EE700BF42004FEAE2014FEA30
:1005100031014FEA02701FBF12F07F4393F07F4F0B
:1005200081F06051704732F07F4208BF704793F00E
:100530007F4F04BF41F40021704730B54FF4607421
:1005400001F0004521F000411CE700BF50EA010224
:1005500008BF704730B54FF000050AE050EA0102CD
:1005600008BF704730B511F0004502D5404261EB3D
:1005700041014FF4806404F132045FEA915C3FF47E
:10058000D8AE4FF003025FEADC0C18BF03325FEA1B
:10059000DC0C18BF033202EBDC02C2F1200300FACC
:1005A00003FC20FA02F001FA03FE40EA0E0021FAF1
:1005B00002F11444BDE600BF70B54FF0FF0C4CF4DF
:1005C000E06C1CEA11541DBF1CEA135594EA0C0F91
:1005D00095EA0C0F00F0DEF82C4481EA030621EACC
:1005E0004C5123EA4C5350EA013518BF52EA033507
:1005F00041F4801143F4801338D0A0FB02CE4FF0B9
:100600000005E1FB02E506F00042E0FB03E54FF0E8
:100610000006E1FB03569CF0000F18BF4EF0010EE0
:10062000A4F1FF04B6F5007F64F5407404D25FEADC
:100630004E0E6D4146EB060642EAC62141EA55518F
:100640004FEAC52040EA5E504FEACE2EB4F1FD0CD1
:1006500088BFBCF5E06F1ED8BEF1004F08BF5FEA4F
:10066000500E50F1000041EB045170BD06F0004601
:1006700046EA010140EA020081EA0301B4EB5C04AE
:10068000C2BFD4EB0C0541EA045170BD41F48011A6
:100690004FF0000E013C00F3AB8014F1360FDEBFCB
:1006A000002001F0004170BDC4F10004203C35DAA7
:1006B0000C341BDC04F11404C4F1200500FA05F32A
:1006C00020FA04F001FA05F240EA020001F00042CB
:1006D00021F0004110EBD37021FA04F642EB060141
:1006E0005EEA430E08BF20EAD37070BDC4F10C046B
:1006F000C4F1200500FA04F320FA05F001FA04F22F
:1007000040EA020001F0004110EBD37041F100011A
:100710005EEA430E08BF20EAD37070BDC4F1200525
:1007200000FA05F24EEA020E20FA04F301FA05F28D
:1007300043EA020321FA04F001F0004121FA04F235
:1007400020EA020000EBD3705EEA430E08BF20EA05
:10075000D37070BD94F0000F0FD101F0004640003F
:1007600041EB010111F4801F08BF013CF7D041EAC1
:10077000060195F0000F18BF704703F000465200C5
:1007800043EB030313F4801F08BF013DF7D043EA96
:100790000603704794EA0C0F0CEA135518BF95EA4C
:1007A0000C0F0CD050EA410618BF52EA4306D1D1D3
:1007B00081EA030101F000414FF0000070BD50EAF2
:1007C000410606BF1046194652EA430619D094EA7C
:1007D0000C0F02D150EA013613D195EA0C0F05D166
:1007E00052EA03361CBF104619460AD181EA0301BA
:1007F00001F0004141F0FE4141F470014FF0000072
:1008000070BD41F0FE4141F4780170BD70B54FF00C
:10081000FF0C4CF4E06C1CEA11541DBF1CEA13558C
:1008200094EA0C0F95EA0C0F00F0A7F8A4EB05046E
:1008300081EA030E52EA03354FEA013100F0888065
:100840004FEA03334FF0805545EA131343EA12632E
:100850004FEA022245EA111545EA10654FEA0026E3
:100860000EF000419D4208BF964244F1FD0404F59C
:10087000407402D25B084FEA3202B61A65EB0305F8
:100880005B084FEA32024FF480104FF4002CB6EBB5
:10089000020E75EB030E22BFB61A754640EA0C0035
:1008A0005B084FEA3202B6EB020E75EB030E22BF75
:1008B000B61A754640EA5C005B084FEA3202B6EBB6
:1008C000020E75EB030E22BFB61A754640EA9C0075
:1008D0005B084FEA3202B6EB020E75EB030E22BF45
:1008E000B61A754640EADC0055EA060E18D04FEA03
:1008F000051545EA16754FEA06164FEAC30343EAA3
:1009000052734FEAC2025FEA1C1CC0D111F4801F6F
:100910000BD141EA00014FF000004FF0004CB6E768
:1009200011F4801F04BF01430020B4F1FD0C88BF07
:10093000BCF5E06F3FF6AFAEB5EB030C04BFB6EB12
:10094000020C5FEA500C50F1000041EB045170BD05
:100950000EF0004E4EEA113114EB5C04C2BFD4EB32
:100960000C0541EA045170BD41F480114FF0000EB6
:10097000013C90E645EA060E8DE60CEA135594EA32
:100980000C0F08BF95EA0C0F3FF43BAF94EA0C0F35
:100990000AD150EA01347FF434AF95EA0C0F7FF4AA
:1009A00025AF104619462CE795EA0C0F06D152EAFE
:1009B00003353FF4FDAE1046194622E750EA4106E2
:1009C00018BF52EA43067FF4C5AE50EA41047FF4F3
:1009D0000DAF52EA43057FF4EBAE12E74FF0FF3C58
:1009E00006E000BF4FF0010C02E000BF4FF0010C29
:1009F0004DF804CD4FEA410C7FEA6C5C4FEA430CA2
:100A000018BF7FEA6C5C1BD001B050EA410C0CBFF0
:100A100052EA430C91EA030F02BF90EA020F002052
:100A2000704710F1000F91EA030F58BF994208BFB9
:100A300090422CBFD8176FEAE37040F00100704776
:100A40004FEA410C7FEA6C5C02D150EA013C07D1CD
:100A50004FEA430C7FEA6C5CD6D152EA033CD3D018
:100A60005DF8040B704700BF8446104662468C4612
:100A70001946634600E000BF01B5FFF7B7FF002845
:100A800048BF10F1000F01BD4DF808EDFFF7F4FF6E
:100A90000CBF012000205DF808FB00BF4DF808EDF9
:100AA000FFF7EAFF34BF012000205DF808FB00BF1C
:100AB0004DF808EDFFF7E0FF94BF012000205DF83E
:100AC00008FB00BF4DF808EDFFF7CEFF94BF0120F3
:100AD00000205DF808FB00BF4DF808EDFFF7C4FFEC
:100AE00034BF012000205DF808FB00BF4FEA41023F
:100AF00012F5001215D211D56FF47873B3EB625270
:100B000012D94FEAC12343F0004343EA505311F096
:100B1000004F23FA02F018BF404270474FF0000028
:100B2000704750EA013005D111F0004008BF6FF066
:100B3000004070474FF00000704700BF53B94AB9FA
:100B4000002908BF00281CBF4FF0FF314FF0FF30D5
:100B500000F00CB8ADF1080C6DE904CE03F0E0FE36
:100B6000DDF804E0DDE9022304B07047704700BF00
:100B700010B5054C227832B9044B13B10448AFF3D9
:100B800000800123237010BD7000002000000000D1
:100B9000CC4B000808B5034B1BB103490348AFF326
:100BA000008008BD0000000074000020CC4B00084D
:100BB00030B595B03022002108A801F0BFFB002419
:100BC0000394049405940694079401941B4B1A6CA7
:100BD00042F080521A641B6C03F080530193019B16
:100BE0000294174A136823F4404343F4004313600C
:100BF000136803F440430293029B022508950123E6
:100C00000B9310230C930E950F94082310935423E9
:100C1000119312950423139308A800F0AFFD0F233E
:100C20000393049505944FF4805306930794294643
:100C300003A800F0BFFF15B030BD00BF0038024070
:100C40000070004080B584B001F0DEF9FFF7B0FF1E
:100C500000F090F800F0C2F900F0A8F800F01AFADD
:100C600000F0D4F8334C204600F00CFB324D2846FF
:100C700000F008FB314E304600F004FB304600F037
:100C80000EFB284600F00BFB0021204600F070FC14
:100C90000421204600F06CFC0821204600F068FC8E
:100CA0000C21204600F064FC254C236800201860CD
:100CB000244D2B6818600390234F3B680293234E0A
:100CC000336801932B68009323680246C82101F022
:100CD00075FA3968306801F0BBFA184B1B68596A1D
:100CE0001B4E304601F08CFB134B1B68596A304693
:100CF00001F086FB174E184B1B68184A12681849FA
:100D00000968306801F0D2F9DFF86080154FD8F833
:100D10000010386801F0EAF9D8F8003001933B6818
:100D20000093114B1B6832682968206801F0FEF9B6
:100D3000BAE700BF14010020D800002050010020B5
:100D4000C40000209C000020B4000020D00000203F
:100D5000E84B0008B8000020CC000020D4000020A0
:100D6000AC000020B0000020A80000209800002067
:100D70007047000082B0002100910B4B1A6B42F0CB
:100D800001021A631A6B02F001020092009A0191AB
:100D90001A6B42F002021A631B6B03F00203019309
:100DA000019B02B0704700BF0038024000B58DB013
:100DB0002022002104A801F0C1FA0023019302932C
:100DC00011484FF080420260436083604FF68D12FD
:100DD000C26003610323039301230593099303A9CD
:100DE00000F0CEFA50B900230193029301A90648FE
:100DF00000F0D6FB28B90DB05DF804FBFFF7B8FF93
:100E0000F1E7FFF7B5FFF6E75001002000B58DB020
:100E10002022002104A801F091FA002301930293FB
:100E20001048114A0260436083604FF68D12C26021
:100E30000361012303930593099303A900F0A0FA2A
:100E400050B900230193029301A9064800F0A8FBC2
:100E500028B90DB05DF804FBFFF78AFFF1E7FFF753
:100E600087FFF6E7D8000020000C004070B58AB07C
:100E70000023059306930793089309930368B3F13E
:100E8000804F04D02F4A934239D00AB070BD00255C
:100E9000009503F50E331A6C42F001021A641A6CC5
:100EA00002F001020092009A01951A6B42F00102D1
:100EB0001A631A6B02F001020192019A02951A6BF1
:100EC00042F002021A631B6B03F002030293029BBF
:100ED0004FF40043059302260696012407940994D3
:100EE00005A9194800F03AFF0823059306960794D0
:100EF0000895099405A9154800F030FFC5E70021C1
:100F00000391134B1A6C42F008021A641A6C02F037
:100F100008020392039A04911A6B42F001021A63C9
:100F20001B6B03F001030493049B0323059302232B
:100F3000069301220792099305A9034800F00EFFCA
:100F4000A3E700BF000C0040000002400004024084
:100F5000003802400268094B9A4200D0704782B0C4
:100F600000230193064B1A6C42F002021A641B6CB8
:100F700003F002030193019B02B07047000400409C
:100F80000038024000B587B0002301930293039319
:100F90000493059302680E4B9A4202D007B05DF8A5
:100FA00004FB002300930B4B1A6B42F002021A63FE
:100FB0001B6B03F002030093009B33230193022376
:100FC0000293059301A9044800F0C8FEE6E700BFBC
:100FD00000040040003802400004024000B58BB01D
:100FE00000230893099301930293039304930593B9
:100FF000069307932548264A0260142242608360C4
:10100000FF22C260036100F0A1F960BB00230893D6
:10101000099308A91D4800F0C3FA38BB6023019367
:101020003223029300220392059201A9174800F08F
:1010300021FAF0B904220DEB0201144800F01AFA6B
:10104000D0B9082201A9114800F014FAB8B90C224D
:1010500001A90E4800F00EFAA0B90C48FFF792FF64
:101060000BB05DF804FBFFF783FECFE7FFF780FED0
:10107000D4E7FFF77DFEDDE7FFF77AFEE1E7FFF754
:1010800077FEE4E7FFF774FEE7E700BF14010020F6
:101090000004004008B50B480B4B03604FF4E133EC
:1010A000436000238360C36003610C22426183615B
:1010B000C361036200F03AFB00B908BDFFF758FEB8
:1010C000FBE700BF8C0100200044004000B589B060
:1010D0000023039304930593069307930268154B2B
:1010E0009A4202D009B05DF804FB0021019103F59A
:1010F000FA331A6C42F400321A641A6C02F40032A9
:101100000192019A02911A6B42F001021A631B6B61
:1011100003F001030293029B1C2303930223049315
:10112000032306930723079303A9034800F016FE41
:10113000D8E700BF00440040000002407047FEE7CF
:10114000FEE7FEE7FEE770477047704708B500F01E
:1011500075FF08BD82B0002100910B4B5A6C42F420
:1011600080425A645A6C02F480420092009A0191C3
:101170001A6C42F080521A641B6C03F08053019386
:10118000019B02B0704700BF0038024070B4036A90
:1011900023F001030362036A4668826922F0730246
:1011A0000C6844EA020523F002028B6813430B4CDF
:1011B000A04206D0466085614A684263036270BC03
:1011C000704723F00803CA68134323F0040326F48E
:1011D00040764A6932438E691643EBE700000140CE
:1011E00030B4036A23F480730362036A4468C269FB
:1011F00022F073020D682A4323F400738D6843EADA
:1012000005230D4DA84206D04460C2614A68C263FE
:10121000036230BC704723F40063CD6843EA0523C2
:1012200023F4806324F440544D6944EA05148D6925
:1012300044EA0514E8E700BF0000014030B4036A47
:1012400023F480530362036A4468C26922F4E642CD
:101250000D6842EA052223F400538D6843EA053302
:10126000074DA84206D04460C2614A680264036226
:1012700030BC704724F480444D6944EA8514F2E799
:1012800000000140022380F839300268136843F0FF
:1012900001031360012380F8393000207047026891
:1012A000D36843F00103D3600268136843F001037D
:1012B00013600020704700000368234A90420ED05C
:1012C000B0F1804F0BD0A2F57C42904207D002F5DE
:1012D0008062904203D002F58062904203D123F0F5
:1012E00070034A681343184A90421AD0B0F1804FF5
:1012F00017D0A2F57C42904213D002F58062904252
:101300000FD002F5806290420BD002F59A329042E3
:1013100007D002F58062904203D002F580629042CD
:1013200003D123F44073CA68134303608B68C3621C
:101330000B688362044B984202D0012343617047DB
:101340000B690363F9E700BF00000140B0B110B5BD
:10135000044690F8393063B1022384F839302146CD
:1013600051F8040BFFF7A8FF012384F8393000205F
:1013700010BD80F83830FFF7EDFDEDE70120704734
:10138000002847D0F8B50C46054690F83930002BB8
:101390003BD0022385F839302A68936823F007038D
:1013A0009360294651F8040BFFF786FF29688A6885
:1013B0008E690F6A2068104326F4407626F00306F3
:1013C000A268A36942EA0323334323F47C4323F056
:1013D000FC03E668E26946EA02261E43226A13031A
:1013E000226943EA0213334327F0AA07626864695B
:1013F00042EA04123A43886029688B612B681A62BA
:10140000012385F839300020F8BD80F83830FFF727
:101410002DFDBEE70120704730B4036A23F01003AE
:101420000362036A4468826922F4E6420D6842EA74
:10143000052223F020038D6843EA05130C4DA842D2
:1014400006D0446082614A688263036230BC7047A0
:1014500023F08003CD6843EA051323F0400324F40E
:1014600040644D6944EA85048D6944EA8504E8E7EF
:101470000000014038B590F83830012B66D00446A2
:101480000D46012380F83830022380F839300C2AC9
:101490001AD8DFE802F00719191920191919341997
:1014A000191947000068FFF771FE2268936943F03D
:1014B000080393612268936923F00403936122680F
:1014C000936929690B439361012384F83930002023
:1014D00084F8380038BD0068FFF79EFF22689369E2
:1014E00043F4006393612268936923F480639361FA
:1014F00022689369296943EA01239361E4E700685C
:10150000FFF76EFE2268D36943F00803D3612268B7
:10151000D36923F00403D3612268D36929690B439B
:10152000D361D1E70068FFF789FE2268D36943F4ED
:101530000063D3612268D36923F48063D361226896
:10154000D369296943EA0123D361BDE70220C1E7DA
:1015500010B4012303FA01F4036A23EA04030362CB
:10156000036A02FA01F10B4303625DF8044B704712
:1015700010B5044601220068FFF7EAFF2368074A16
:10158000934206D02268136843F0010313600020E1
:1015900010BD5A6C42F400425A64F3E70000014067
:1015A00090F83830012B22D030B4012280F8382056
:1015B000022380F839300468636823F070036360A5
:1015C000046863680D682B4363600468A36823F0B4
:1015D0008003A3600468A36849680B43A36080F894
:1015E0003920002380F83830184630BC704702207C
:1015F00070470000F8B504460268D36823F00C0376
:10160000D36001680A6922F47C528369C06903438C
:10161000206A0343E0680343134343F400630B6110
:101620002168CA6822F4164222F00C02A3682069DD
:10163000034360690343134343F40043CB602268D0
:10164000536923F4407353612368364A934236D07A
:1016500002F58062934232D000F060FB00EB800024
:1016600000EB800065686D00B0FBF5F52E4EA6FB23
:1016700005356D092D0100F051FB00EB800303EBF4
:10168000830367687F00B3FBF7F700F047FB00EBCD
:10169000800000EB800063685B00B0FBF3F3A6FB07
:1016A00003235B09642202FB13731B013233A6FB85
:1016B0000323C3F3431322682B43936031E000F00C
:1016C0003DFB00EB800000EB800065686D00B0FB27
:1016D000F5F5154EA6FB05356D092D0100F02EFB25
:1016E00000EB800303EB830367687F00B3FBF7F72E
:1016F00000F024FB00EB800000EB800063685B00DF
:10170000B0FBF3F3A6FB03235B09642202FB137314
:101710001B013233A6FB0323C3F3431322682B437D
:101720009360F8BD001001401F85EB5120B310B548
:10173000044690F83D30D3B1022384F83D30204672
:10174000FFF758FF2268136923F48043136122686E
:10175000536923F02A0353612268D36843F400538A
:10176000D36000202064012384F83D3010BD80F850
:101770003C30FFF7ABFCDFE701207047002800F0AA
:10178000B98170B582B00446036813F0010F3BD0F5
:10179000A64B9B6803F00C03042B2CD0A34B9B6837
:1017A00003F00C03082B21D06368B3F5803F4FD0C2
:1017B000B3F5A02F52D09D4B1A6822F480321A60E4
:1017C0001A6822F480221A606368002B50D000F05F
:1017D00041FC0546954B1B6813F4003F14D100F003
:1017E00039FC401B6428F5D903208AE18F4B5B68E4
:1017F00013F4800FD8D08D4B1B6813F4003F03D037
:101800006368002B00F07881236813F0020F54D036
:10181000864B9B6813F00C0F3ED0844B9B6803F003
:101820000C03082B33D0E368002B67D0804B0122D8
:101830001A6000F00FFC05467C4B1B6813F0020F8A
:1018400053D100F007FC401B0228F5D9032058E1D2
:10185000764A136843F480331360B5E7734B1A6814
:1018600042F480221A601A6842F480321A60ABE7B0
:1018700000F0F0FB05466D4B1B6813F4003FC3D02E
:1018800000F0E8FB401B6428F5D9032039E1674BE1
:101890005B6813F4800FC6D1644B1B6813F0020F12
:1018A00003D0E368012B40F02981604A136823F0DC
:1018B000F803216943EAC1031360236813F0080F9A
:1018C00040D0636963B35B4B01221A6000F0C2FB36
:1018D0000546564B5B6F13F0020F33D100F0BAFB95
:1018E000401B0228F5D903200BE1504A136823F06E
:1018F000F803216943EAC1031360DEE74C4B002281
:101900001A6000F0A7FB0546484B1B6813F0020F56
:10191000D3D000F09FFB401B0228F5D90320F0E054
:10192000444B00221A6000F095FB05463F4B5B6F6D
:1019300013F0020F06D000F08DFB401B0228F5D9F2
:101940000320DEE0236813F0040F78D0374B1B6CC4
:1019500013F0805F0DD100230193344B1A6C42F0D9
:1019600080521A641B6C03F080530193019B012584
:1019700000E00025304B1B6813F4807F21D0A36862
:10198000012B32D0052B36D0284B1A6F22F00102E2
:101990001A671A6F22F004021A67A368002B34D06A
:1019A00000F058FB0646214B1B6F13F0020F45D188
:1019B00000F050FB801B41F288339842F3D903209A
:1019C0009FE01D4A136843F48073136000F042FBEC
:1019D0000646194B1B6813F4807FD0D100F03AFB08
:1019E000801B0228F5D903208BE0104A136F43F0C7
:1019F00001031367D1E70D4B1A6F42F004021A6717
:101A00001A6F42F001021A67C7E700F023FB06468F
:101A1000064B1B6F13F0020F10D000F01BFB801B56
:101A200041F288339842F3D903206AE0003802403B
:101A300000004742800E474200700040E5B9A369AC
:101A4000002B5DD0314A926802F00C02082A5AD06D
:101A5000022B17D02E4B00221A6000F0FBFA04462E
:101A60002A4B1B6813F0007F42D000F0F3FA001BF2
:101A70000228F5D9032044E0244A136C23F0805354
:101A80001364DCE7224B00221A6000F0E3FA0546FB
:101A90001E4B1B6813F0007F06D000F0DBFA401BE2
:101AA0000228F5D903202CE0E369226A1343626A15
:101AB00043EA8213A26A5208013A43EA0243E26A05
:101AC00043EA0263114A5360114B01221A6000F08D
:101AD000C1FA04460D4B1B6813F0007F06D100F0DD
:101AE000B9FA001B0228F5D903200AE0002008E01B
:101AF000002006E001207047012002E0012000E004
:101B0000002002B070BD0120FBE700BF003802409A
:101B100060004742F8B5244B9B6803F00C03042B8C
:101B20003DD0082B3DD1204B5A6802F03F025B6844
:101B300013F4800F12D01C4B5968C1F38811002395
:101B40001A48A1FB0001FEF7F9FF174B5B68C3F3CE
:101B5000014301335B00B0FBF3F023E0124B5B6801
:101B6000C3F388135C010025E41A65F10005AE019A
:101B700046EA9466A701381B66EB0501CC0044EAEF
:101B80005074C500E81844F100018B0243EA9053F9
:101B90008402204619460023FEF7D0FFD5E703480C
:101BA00000E00348F8BD00BF0038024040787D01E6
:101BB0000024F400002800F09A8070B50D46044619
:101BC0004F4B1B6803F00F038B4208D2CBB24C4A39
:101BD0001370136803F00F038B4240F08A80236870
:101BE00013F0020F17D013F0040F04D0454A936886
:101BF00043F4E0539360236813F0080F04D0414A84
:101C0000936843F4604393603E4A936823F0F00383
:101C1000A1680B439360236813F0010F32D063680F
:101C2000012B21D09A1E012A25D9364A126812F0BA
:101C3000020F60D033498A6822F0030213438B609D
:101C400000F008FA06462F4B9B6803F00C0362680D
:101C5000B3EB820F16D000F0FDF9801B41F2883300
:101C60009842F0D9032041E0264A126812F4003F5E
:101C7000E0D101203AE0234A126812F0007FD9D166
:101C8000012033E01E4B1B6803F00F03AB4207D962
:101C9000EAB21B4B1A701B6803F00F03AB422CD146
:101CA000236813F0040F06D0164A936823F4E05318
:101CB000E1680B439360236813F0080F07D0114AC3
:101CC000936823F46043216943EAC1039360FFF7FB
:101CD00021FF0C4B9B68C3F303130B4AD35CD84022
:101CE0000A4B1860002000F069F9002070BD012047
:101CF00070470120FAE70120F8E70120F6E700BF6E
:101D0000003C024000380240F04B00080800002070
:101D1000014B1868704700BF0800002008B5FFF7A6
:101D2000F7FF044B9B68C3F38223034AD35CD8407C
:101D300008BD00BF00380240004C000808B5FFF79E
:101D4000E7FF044B9B68C3F34233034AD35CD8409C
:101D500008BD00BF00380240004C000800230F2BD4
:101D600000F2C780F0B482B039E0042200E0002223
:101D7000B2403A4302345F4E46F824205E4A14686B
:101D8000EA4324EA05064F6817F4803F01D045EA8C
:101D90000406594C2660646802EA04064F6817F48A
:101DA000003F01D045EA0406534C6660A46802EA8D
:101DB00004064F6817F4801F01D045EA04064E4C14
:101DC000A660E46822404E6816F4001F01D045EA80
:101DD0000402494CE26001330F2B00F2878001229C
:101DE0009A400C6804EA020532EA0404F3D14C6814
:101DF000022C01D0122C10D1DE08083650F826C073
:101E000003F00704A7000F24BC402CEA040C0C6963
:101E1000BC4044EA0C0440F82640D0F800C05E0004
:101E20000324B440E7432CEA040C4C6804F0030498
:101E3000B44044EA0C0404604C6804F1FF3CBCF17B
:101E4000010F03D9112C01D0122C10D1846807EA9C
:101E5000040CCC68B44044EA0C048460446824EA6E
:101E600002024C68C4F300149C4014434460C268EE
:101E700017408A68B2403A43C2604A6812F0805FF5
:101E8000A9D0002201921D4A546C44F48044546449
:101E9000526C02F480420192019A9C08A61C154AD9
:101EA00052F8267003F0030296000F22B24027EA90
:101EB0000207134A90423FF45AAF02F58062904203
:101EC0000ED002F5806290420CD002F58062904202
:101ED0000AD002F5806290423FF447AF072247E7FD
:101EE000012245E7022243E7032241E702B0F0BCAA
:101EF0007047704700380140003C01400038024004
:101F000000000240074AD36823F4E0631B041B0C63
:101F1000000200F4E060034343F0BF6343F4003386
:101F2000D360704700ED00E030B4174BDB68C3F3BB
:101F30000223C3F10704042C28BF04241D1D062D11
:101F400018D9033B4FF0FF3505FA04F421EA0401E8
:101F5000994005FA03F322EA0303194300280BDB37
:101F60000901C9B200F1604000F5614080F800133A
:101F700030BC70470023E5E700F00F000901C9B24B
:101F8000024B1954F4E700BF00ED00E014ED00E04F
:101F90000138B0F1807F0AD2064B5860064AF02122
:101FA00082F823100020986007221A6070470120F1
:101FB000704700BF10E000E000ED00E010B50446FF
:101FC0000E4B18784FF47A73B3FBF0F30C4A106899
:101FD000B0FBF3F0FFF7DCFF68B90F2C01D901204B
:101FE0000AE0002221464FF0FF30FFF79DFF054B2E
:101FF0001C60002000E0012010BD00BF0000002098
:10200000080000200400002008B50B4B1A6842F4B9
:1020100000721A601A6842F480621A601A6842F408
:1020200080721A600320FFF76DFF0020FFF7C6FFE4
:10203000FFF790F8002008BD003C0240034A1168F9
:10204000034B1B780B441360704700BFD001002086
:1020500000000020014B1868704700BFD00100202D
:102060000F49D1F8883043F47003C1F888300D4B24
:102070001A6842F001021A60002098601A6822F083
:10208000847222F480321A60074A5A601A6822F475
:1020900080221A60D8604FF000638B60704700BFE9
:1020A00000ED00E0003802401030002482B00191C1
:1020B0000092019A0099521A92FBF3F2642303FBF7
:1020C00002F3094A82FB03C1DB17C3EBE11382FB76
:1020D0000321DA17C2EBE1124FF41D7101FB12323A
:1020E000026002B0704700BFF3A72D3410B483B074
:1020F00040684042019049680091019840F6C8212B
:1021000091FBF0F000EBD070146804EB60001060FD
:10211000009891FBF0F101EBD171186800EB6101BF
:102120001960106803B05DF8044B70472DE9F04763
:1021300082460C461546089A1268099908680244B6
:102140001868C0EB5200FEF7CDF906460F46286826
:10215000FEF7C8F941EC100B01F082F953EC102B9B
:1021600030463946FEF728FA80468946DAF80000FC
:10217000FEF7B8F942464B46FEF768F8FEF7B6FCA4
:10218000CAF800002868FEF7ADF941EC100B01F029
:10219000D3F953EC102B30463946FEF70DFA0646BC
:1021A0000F462068FEF79EF932463B46FEF74EF892
:1021B000FEF79CFC2060BDE8F08700002DE9F843A5
:1021C000099F0A9E1C680C1B089B1D68551B95FBEC
:1021D000F4F0FEF787F941EC100B00F095FF51EC9D
:1021E000100B0022194BFEF7E7F9FEF77FFC05FB09
:1021F00005F504FB045404EB8405F8B140426D007E
:10220000FEF770F941EC100B01F096F959EC108BC8
:102210002846FEF767F942464B46FEF7CDF9FEF732
:1022200065FC38606842FEF75DF942464B46FEF7B2
:10223000C3F9FEF75BFC3060BDE8F8834FF47A75B4
:1022400005FB04F43C603460F6E700BF0000244066
:102250000368002B13DB0368002B04DD0F4A1268B0
:10226000D363002313640B68002B04DD0B4A126850
:102270005363002393630B68002B08DB7047074B05
:102280001A680023D36303685B421364E3E7034ADD
:1022900012685B42936300235363EFE7140100204D
:1022A000DFF834D0002103E00C4B5B58435004317D
:1022B0000B480C4B42189A42F6D30B4A02E000231B
:1022C00042F8043B094B9A42F9D3FFF7C9FE00F0EC
:1022D00011F8FEF7B7FC704700800120C84E0008D7
:1022E000000000207000002070000020D8010020B5
:1022F000FEE7000070B50D4D0D4C641BA4100026C8
:10230000A64209D10B4D0C4C02F060FC641BA410DA
:102310000026A64205D170BD55F8043B984701360A
:10232000EEE755F8043B98470136F2E7C04E000847
:10233000C04E0008C04E0008C44E000802440346C8
:10234000934200D1704703F8011BF9E7F8B5CD1CA3
:1023500025F0030508350C2D38BF0C25002D064649
:1023600001DBA94203D90C2333600020F8BD00F043
:1023700039F921490A6814469CB9204F3B6823B9B2
:102380002146304600F054F838602946304600F0C7
:102390004FF8431C23D10C233360304600F023F95F
:1023A000E3E723685B1B17D40B2B03D923601C4482
:1023B000256004E06368A2420CBF0B6053603046A6
:1023C00000F011F904F10B00231D20F00700C21AE0
:1023D000CCD01B1AA350C9E722466468CCE7C41CC2
:1023E00024F00304A042E3D0211A304600F020F884
:1023F0000130DDD1CFE700BF8C000020900000202D
:102400000FB40A4B13B51C6824B1A36913B9204655
:1024100000F05EF805AB049AA1680193204600F035
:102420000DF902B0BDE8104004B070470C00002068
:1024300038B5064C002305460846236002F05AFAD8
:10244000431C02D1236803B12B6038BDD4010020A6
:10245000002310B50446C0E90033836081814366E0
:10246000C281C0E904338361194608225C30FFF75A
:1024700065FF054B6362054BA362054BE362054BA9
:102480002462236310BD00BF552800087728000888
:10249000AF280008D3280008014900F085B800BF24
:1024A000AD2B000870B54A1E682555430E4605F150
:1024B0007401FFF74BFF044640B10021C0E900164C
:1024C0000C30A06005F16802FFF738FF204670BDB0
:1024D000836910B5044633BBC0E912330365124B60
:1024E000124A1B688262984204BF0123836100F094
:1024F0001FF86060204600F01BF8A060204600F046
:1025000017F80022E06004216068FFF7A1FF0122B4
:102510000921A068FFF79CFF02221221E068FFF763
:1025200097FF0123A36110BD084C000899240008FF
:10253000F8B51B4B1E68B369074613B93046FFF761
:10254000C7FF4836D6E90134013B03D53368DBB118
:102550003668F7E7B4F90C50A5B9124B6566C4E9C3
:102560000055A560C4E90335C4E90555082229468C
:1025700004F15C00FFF7E2FEC4E90D55C4E9125511
:102580002046F8BD6834DFE704213846FFF78AFFAC
:10259000044630600028DBD10C233B60F0E700BF2D
:1025A000084C00080100FFFF2DE9F84380468946EA
:1025B00000F14804002614B93046BDE8F883D4E998
:1025C0000175013F01D52468F5E7AB89012B07D9D7
:1025D000B5F90E30013303D029464046C8470643BB
:1025E0006835EEE7704770479368013B002B10B4E5
:1025F000936008DA9469A34201DB0A2903D15DF8EC
:10260000044B00F06BB91368581C10601970084631
:102610005DF8044B7047F8B506460F461446D518CA
:10262000AC4201D1002007E03A4614F8011B3046C5
:10263000FFF7DAFF431CF3D1F8BD00002DE9F04F9E
:102640000D469DB014461E46074618B183690BB966
:10265000FFF73EFF774B9D425AD17D68AB89180743
:1026600060D52B69002B5DD00023099320238DF8C2
:102670002930DFF8C491039630238DF82A304FF0CB
:10268000010A23461E4613F8012B0AB1252AF9D167
:10269000B6EB040B0BD05B46224629463846FFF7C3
:1026A000BAFF013000F0B880099B5B44099333788E
:1026B000002B00F0B18000234FF0FF32CDE905235D
:1026C0000136049307938DF853301A93344605224C
:1026D00014F8011B5848FDF763FD049B68BBD9063D
:1026E00044BF20228DF853201A0744BF2B228DF8B7
:1026F000532032782A2A28D0079A344600200A2606
:10270000214611F8013B303B092B60D918BB29E069
:102710004A4B9D4201D1BD68A0E7494B9D4208BF8D
:10272000FD689BE72946384600F03CF900289BD01D
:102730004FF0FF301DB0BDE8F08FA0EB09000AFAA2
:1027400000F0184304902646C0E7039A111D126852
:102750000391002A01DB079204E0524243F0020396
:102760000792049323782E2B0CD163782A2B33D134
:10277000039B1A1D1B680392002BB8BF4FF0FF3359
:10278000023405932F4E217803223046FDF708FDD1
:1027900038B14023801B03FA00F0049B034301344B
:1027A000049314F8011B28488DF828100622FDF721
:1027B000F7FC002835D0254B13BB039B073323F0D0
:1027C000070308330393099B4344099359E706FB26
:1027D000023201200C4693E7002301340593194689
:1027E0000A26204610F8012B303A092A03D9002B7B
:1027F000C8D00591C6E706FB012101230446F0E796
:1028000003AB00932A46124B04A93846AFF300806D
:10281000B0F1FF3F8046D6D1AB895B0688D40998DA
:1028200088E703AB00932A46094B04A9384600F019
:1028300021FBEDE72C4C00086C4C00084C4C0008C8
:102840000C4C0008724C0008764C00080000000098
:102850001726000810B50C46B1F90E1000F01EFC4A
:102860000028ABBF636DA3891B1823F48053ACBF52
:102870006365A38110BD2DE9F0411F468B89DB05FF
:1028800005460C46164605D502230022B1F90E1066
:1028900000F0B6F9A389B4F90E1023F48053A38194
:1028A00032463B462846BDE8F04100F069B810B515
:1028B0000C46B1F90E1000F0A3F9431CA38915BF13
:1028C000606523F4805343F48053A38118BFA38130
:1028D00010BDB1F90E1000F0D3B80000F8B50E46E7
:1028E0001446054618B183690BB9FFF7F1FD214B7A
:1028F0009C422BD16C68A369A360A3891A072FD5CA
:1029000023696BB323692068C01A6369F6B28342F6
:10291000374604DC2146284600F048F930BBA3685E
:10292000013BA36023685A1C22601E70636901305A
:10293000834204D0A389DB0706D50A2E04D12146A1
:10294000284600F033F988B93846F8BD0A4B9C4256
:1029500001D1AC68CFE7094B9C4208BFEC68CAE7DD
:102960002146284600F01EF80028CBD04FF0FF3754
:10297000EAE700BF2C4C00084C4C00080C4C000847
:1029800038B5074C054608461146002222601A4613
:1029900001F0BEFF431C02D1236803B12B6038BD98
:1029A000D4010020324B70B51D6806460C4625B197
:1029B000AB6913B92846FFF78BFD2E4B9C420FD114
:1029C0006C68B4F90C309AB215072CD4D00611D427
:1029D0000922326043F04003A3814FF0FF303EE014
:1029E000254B9C4201D1AC68EBE7244B9C4208BFCD
:1029F000EC68E6E7510712D5616B41B104F144037D
:102A0000994202D0304600F071F900236363A38934
:102A100023F02403A3810023636023692360A38937
:102A200043F00803A38123694BB9A38903F42073FE
:102A3000B3F5007F03D02146304600F017F9A28994
:102A400012F001030CD00023A36063695B42A36111
:102A5000236953B9B4F90C3013F08000BAD170BDBA
:102A6000920758BF6369A360F2E70020F7E700BF51
:102A70000C0000202C4C00084C4C00080C4C0008AA
:102A800038B5064C002305460846236001F00AFFCE
:102A9000431C02D1236803B12B6038BDD401002050
:102AA0008A892DE9F041054610070C4658D44B6839
:102AB000002B05DC0B6C002B02DC0020BDE8F08154
:102AC000E66A002EF9D0002312F480522F682B60A2
:102AD00032D0606DA3895A0705D56368C01A636B4D
:102AE0000BB1236CC01A00230246E66A216A28460D
:102AF000B047431CA38906D129681D292CD82A4A2E
:102B0000CA40D60728D500226260D9042269226013
:102B100004D5421C01D12B6803B96065616B2F603D
:102B20000029CAD004F14403994202D0284600F09B
:102B3000DDF800206063C1E7216A01232846B04721
:102B4000411CC7D12B68002BC4D01D2B01D0162BE4
:102B500001D12F60B1E7A38943F04003A381ADE722
:102B60000F69002FA9D093070E6808BF4B690F604B
:102B700018BF0023A6EB07088B60B8F1000F9CDD9F
:102B800043463A46216AA66A2846B047002806DC32
:102B9000A38943F04003A3814FF0FF308EE7074441
:102BA000A8EB0008E9E700BF0100402038B50B6939
:102BB00005460C46DBB118B183690BB9FFF788FCF9
:102BC0000C4B9C4209D16C68B4F90C307BB12146A6
:102BD0002846BDE83840FFF763BF074B9C4201D150
:102BE000AC68F1E7054B9C4208BFEC68ECE70020BD
:102BF00038BD00BF2C4C00084C4C00080C4C0008A1
:102C000038B5074C054608461146002222601A4690
:102C100001F060FE431C02D1236803B12B6038BD74
:102C2000D401002070B50E46B1F90E10002996B0FF
:102C300014461D4607DA00232B60B3891A0610D408
:102C40004FF480630EE06A4600F03AFA0028F2DBA7
:102C5000019A02F47042A2F500535A425A412A6086
:102C6000EEE740230020236016B070BD8B8973B55A
:102C70009D0706460C4607D504F1470323602361F0
:102C80000123636102B070BD01AB6A46FFF7CAFF62
:102C9000009905463046FFF759FB48B9B4F90C30A6
:102CA0009A05EFD423F0030343F00203A381E3E783
:102CB0000D4BB362A389206043F08003A381009B86
:102CC0006361019B20615BB1B4F90E10304600F0E6
:102CD00009FA28B1A38923F0030343F00103A38178
:102CE000A3891D43A581CDE79924000838B5054681
:102CF000002945D051F8043C0C1F002BB8BFE41844
:102D0000FFF770FC1F4A1368104633B96360146004
:102D10002846BDE83840FFF766BCA3420CD92168BD
:102D20006218934204BF1A685B68636004BF52185C
:102D300022600460ECE713465A680AB1A242FAD94D
:102D400019685818A0420BD12068014458188242D3
:102D50001960DDD1106852685A6001441960D7E7E4
:102D600002D90C232B60D3E7206821188A4204BFC4
:102D700011685268626004BF091821605C60C7E78F
:102D800038BD00BF8C0000202DE9F04791461F465A
:102D90008A680B69DDF820809342B8BF1346C9F8F2
:102DA000003091F8432006460C4612B10133C9F8B1
:102DB00000302368990642BFD9F800300233C9F8C1
:102DC0000030256815F0060507D104F1190AE368FB
:102DD000D9F800209B1AAB4228DC94F843302268D3
:102DE000003318BF012392062DD404F14302394663
:102DF0003046C047013020D02368E568D9F800206C
:102E000003F00603042B08BFAD1AA36822690CBFA8
:102E100025EAE57500259342C4BF9B1AED184FF0D3
:102E200000091A344D451AD1002008E0012352460A
:102E300039463046C047013003D14FF0FF30BDE87E
:102E4000F0870135C3E7E1185A1C302081F84300B0
:102E5000224494F8451082F843100233C5E7012359
:102E6000224639463046C0470130E6D009F1010913
:102E7000D8E700002DE9F04306460C4601F1430077
:102E8000097E85B06E29984617460C9B00F0BA80E3
:102E900024D8632939D00AD8002900F0C3805829E2
:102EA00000F0918004F1420584F8421035E0642975
:102EB00001D06929F6D125681A6815F0800F02F152
:102EC00004012CD012681960002A03DA2D23524223
:102ED00084F84330DFF8BCC10A233FE0732900F0D7
:102EE000A58008D86F2921D07029DBD1226842F053
:102EF0002002226003E0752918D07829D2D17822E7
:102F000084F84520DFF890C161E01A68111D19604E
:102F1000136884F8423004F14205012393E01268FB
:102F2000196015F0400F18BF12B2CDE7D4F800C0F9
:102F30001A681CF0800F02F104051D6001D01268B0
:102F400003E01CF0400FFAD01288DFF848C16F2967
:102F50000CBF08230A23002184F843106568A5608C
:102F6000002DA2BF216821F0040121600AB9002DC3
:102F700046D00546B2FBF3F103FB112E93421CF839
:102F80000EE005F801ED39D9082B0BD12368DA07DB
:102F900008D5236962689A42DEBF302305F8013CF8
:102FA00005F1FF35401B2061CDF800803B4603AAA8
:102FB00021463046FFF7E8FE013049D14FF0FF309F
:102FC00005B0BDE8F083DFF8CCC084F845101D687B
:102FD000216855F8042B1D600D060BD5CD0744BFA5
:102FE00041F0200121601AB9236823F020032360F7
:102FF0001023B0E74B0648BF92B2EFE70A46B9E7A5
:103000000546C1E71A68D4F800C06169151D1D6046
:103010001CF0800F136801D0196003E01CF0400F12
:10302000FAD01980002323610546BDE71A68111DF7
:1030300019601568626800212846FDF7B1F808B1EB
:10304000401B606063682361002384F84330ABE772
:1030500023692A4639463046C0470130AED023683E
:103060009B0713D4E068039B9842B8BF1846A7E7B4
:1030700001234A4639463046C04701309ED00135CB
:10308000E368039A9B1AAB42F2DCEBE7002504F1FC
:103090001909F5E77D4C00088E4C000838B5074C3F
:1030A000054608461146002222601A4601F01AFC25
:1030B000431C02D1236803B12B6038BDD40100202A
:1030C00038B5074C0023054608461146236001F039
:1030D000F1FB431C02D1236803B12B6038BD00BF54
:1030E000D401002038B5064C00230546084623606D
:1030F00001F0E8FB431C02D1236803B12B6038BD0B
:10310000D4010020000000002DE9F84F55EC104BD1
:10311000C94B25F000469E42AA461ADDC74B9E4287
:103120000DDC0AD0BAF1000F40F3CB80A6A1D1E9A3
:10313000000141EC100BBDE8F88F002CF2D02246C4
:103140002B4620462946FDF781F841EC100BBDE8DF
:10315000F88FBB4B9E4200F3C380A3F1DE739E4207
:1031600040F39D804FF0FF3B22462B4620462946E8
:10317000FDF722FA02460B4680468946FDF71CFA07
:1031800093A3D3E9002306460F46FDF715FA92A351
:10319000D3E90023FDF75AF832463B46FDF70CFA17
:1031A0008FA3D3E90023FDF751F832463B46FDF7E4
:1031B00003FA8DA3D3E90023FDF748F832463B46D6
:1031C000FDF7FAF98AA3D3E90023FDF73FF8324669
:1031D0003B46FDF7F1F988A3D3E90023FDF736F864
:1031E00042464B46FDF7E8F985A3D3E90023804624
:1031F000894630463946FDF7DFF983A3D3E900233A
:10320000FDF722F832463B46FDF7D6F980A3D3E915
:103210000023FDF719F832463B46FDF7CDF97EA3B2
:10322000D3E90023FDF710F832463B46FDF7C4F919
:103230007BA3D3E90023FDF707F832463B46FDF7B1
:10324000BBF902460B4640464946FCF7FFFF2246C3
:103250002B46FDF7B1F9BBF1FF3F02460B4637D0D5
:10326000784B794E4FEACB0B5B44D3E90023FCF754
:10327000EBFF22462B46FCF7E7FFB34402460B4622
:10328000DBE90001FCF7E0FFBAF1000FBFF65DAF2C
:1032900001F10043194641EC100BBDE8F88F62A321
:1032A000D3E9002310EE100A2946FCF7CFFF0022D5
:1032B000664BFDF711FC00283FF454AF2046294629
:1032C00043E75BA1D1E9000141EC100BBDE8F88FA9
:1032D00020462946FCF7B8FF41EC100BBDE8F88FFB
:1032E00000F01EF95A4B9E4255EC104B23DCA3F51F
:1032F00050239E424CDC10EE102A10EE100A2B4692
:103300002946FCF7A3FF0022504BFCF79DFF00224B
:1033100006460F464FF0804320462946FCF796FFAD
:1033200002460B4630463946FDF770FA4FF0000B67
:1033300004460D4618E7474B9E421DDC10EE100A6E
:103340000022454B2946FCF77FFF002206460F4628
:10335000414B20462946FDF72FF900223B4BFCF755
:1033600075FF02460B4630463946FDF74FFA4FF0DF
:10337000020B04460D46F7E62B4610EE102A0020FD
:103380003649FDF743FA4FF0030B04460D46EBE6D2
:1033900010EE100A00222D4B2946FCF755FF0022A3
:1033A00006460F46294B20462946FCF74FFF0246AA
:1033B0000B4630463946FDF729FA4FF0010B04461B
:1033C0000D46D1E6AFF30080182D4454FB21F93FA0
:1033D00011DA22E33AAD903FEB0D76244B7BA93F07
:1033E000513DD0A0660DB13F6E204CC5CD45B73FD5
:1033F000FF8300922449C23F0D5555555555D53F81
:103400002F6C6A2C44B4A2BF9AFDDE522DDEAD3F74
:103410006D9A74AFF2B0B33F711623FEC671BC3F14
:10342000C4EB98999999C93F9C7500883CE4377E14
:10343000182D4454FB21F9BFFFFF0F440000F07F1B
:10344000FFFFDB3FC04C0008A04C00080000F03F2D
:10345000FFFFF23FFF7F03400000F83F0000F0BF96
:1034600000B551EC100B2C4A21F00043934285B07B
:1034700020DD2A4A934209DD10EE102A0B46FCF7A4
:10348000E3FE41EC100B05B05DF804FB684600F06C
:10349000B3F800F00300012817D002282FD028B37A
:1034A00001209DED021B9DED000B01F019F851EC80
:1034B000100BE6E79FED161B00F0B6FA51EC100B6F
:1034C00041EC100B05B05DF804FB9DED021B9DED7A
:1034D000000B01F005F853EC102B10EE100A03F16D
:1034E000004141EC100B05B05DF804FB9DED021BA3
:1034F0009DED000B00F098FA51EC100BC1E79DED2B
:10350000021B9DED000B00F08FFAE4E7AFF30080A3
:103510000000000000000000FB21E93FFFFFEF7FFB
:1035200051EC100B10EE102A21F0004343EC102B4D
:10353000704700BF0000000000B551EC100B2C4A92
:1035400021F00043934285B027DD2A4A934209DDEA
:1035500010EE102A0B46FCF777FE41EC100B05B07D
:103560005DF804FB684600F047F800F0030001280E
:103570001FD0022830D028B39DED021B9DED000B1B
:1035800000F052FA53EC102B10EE100A03F1004138
:1035900041EC100B05B05DF804FB00209FED121B01
:1035A00000F09EFF51EC100B41EC100B05B05DF8E4
:1035B00004FB9DED021B9DED000B00F035FA51EC74
:1035C000100BCAE701209DED021B9DED000B00F0E2
:1035D00087FF51EC100BC0E701209DED021B9DED14
:1035E000000B00F07DFFCDE70000000000000000B0
:1035F000FB21E93FFFFFEF7F2DE9F04F53EC102B4C
:10360000974923F000458D428FB040F3878095495C
:103610008D421E46044629DC002E194610EE100A83
:1036200085A3D3E9002340F3AA81FCF70DFE8E4B5E
:103630009D4206460F4600F0878081A3D3E9002310
:10364000FCF702FE02460B46C4E900233946304629
:10365000FCF7FAFD7AA3D3E90023FCF7F5FDC4E9F2
:103660000201012738460FB0BDE8F08F7F498D4237
:1036700040F38A807E498D425BDC2F15A7F2164706
:1036800010EE100AA5EB075190468946FDF72EFA79
:10369000FCF728FF82468B464046494652465B4629
:1036A000CDE908ABFCF7D0FD0022724BFCF784FF9C
:1036B00089468046FDF71AFA0546FCF713FF0246D5
:1036C0000B4640464946CDE90A23FCF7BDFD0022E2
:1036D000684BFCF771FF00220023CDE90C01FDF7D8
:1036E000D3F9002800F04981002D0CBF01230223EB
:1036F000614A019202213A46009108A8214600F051
:10370000D7FA002E0746ADDA6268E36802F100429C
:1037100003F1004347426260E360A3E70024002511
:10372000002780ED000BC0E9024538460FB0BDE828
:10373000F08F10EE100A1946FCF786FD0027C4E949
:103740000201C4E900018DE73FA3D3E90023FCF7A0
:103750007BFD3FA3D3E9002306460F46FCF774FD2B
:1037600002460B46C4E9002330463946FCF76CFD9F
:1037700037A3D3E90023FCF767FD0127C4E9020161
:1037800038460FB0BDE8F08FFFF7CAFE59EC108B3A
:1037900010EE100A30A3D3E900234946FCF70CFFD2
:1037A0000022364BFCF752FDFDF7A0F90746FCF767
:1037B00099FE21A3D3E90023CDE90401FCF7FCFE27
:1037C00002460B4640464946FCF73EFD1CA3D3E9A2
:1037D000002382468B46DDE90401FCF7EDFE1F2F36
:1037E000CDE902014EDC02460B4650465946FCF735
:1037F0002BFD234B7A1E804653F82230AB4289467C
:1038000048D042464B46C4E9008950465946FCF729
:103810001BFDDDE90223FCF717FD002EC4E90201C0
:10382000BFF620AF09F1004501F100437F42C4E932
:103830000085C4E9020315E700004054FB21F93F6D
:103840003163621A61B4D03D0000601A61B4D03DAA
:103850007370032E8A19A33B83C8C96D305FE43FA0
:10386000FB21E93F7BD90240FB21F93FFB21394194
:10387000FFFFEF7F00007041604D00080000E03F57
:10388000E04C0008DDE9022350465946FCF7DCFC19
:10389000804689462D15C9F30A53EB1A102BB0DD6B
:1038A00057A3D3E90023DDE90401FCF785FE804638
:1038B000894602460B4650465946FCF7C5FC02466F
:1038C0000B4650465946CDE90623FCF7BDFC42465F
:1038D0004B46FCF7B9FC4CA3D3E90023804689464C
:1038E000DDE90401FCF768FE42464B46FCF7ACFC00
:1038F000DDE906ABCDE902010B46024659465046CA
:10390000FCF7A2FCC1F30A53ED1A312D804689461B
:103910007FF777AF3FA3D3E90023DDE90401FCF78C
:103920004BFE8046894602460B46DDE90601FCF760
:103930008BFC02460B4682468B46DDE90601FCF70E
:1039400083FC42464B46FCF77FFC34A3D3E90023BB
:1039500080468946DDE90401FCF72EFE42464B46CF
:10396000FCF772FC02460B4650465946CDE902234D
:10397000FCF76AFC8046894643E70323B8E6FCF778
:1039800065FC234B9D4206460F4616D01AA3D3E989
:103990000023FCF75BFC02460B46C4E900233946D2
:1039A0003046FCF751FC14A3D3E90023FCF74EFC8E
:1039B0004FF0FF37C4E9020154E611A3D3E9002315
:1039C000FCF744FC10A3D3E900230F460646FCF79E
:1039D0003DFC02460B46C4E9002339463046FCF75D
:1039E00033FC09A3D3E90023FCF730FC4FF0FF3789
:1039F000C4E9020136E600BF3163621A61B4D03D0A
:103A00000000601A61B4D03D7370032E8A19A33B85
:103A1000FB21F93F0000002E8A19A33BC149202554
:103A20009A837B39000000002DE9F04F57EC106BB2
:103A30002DED028BB0EE418AF0EE618A27F000494D
:103A4000B9F1795F83B072DA10EE100A3946FDF7EA
:103A50004DF8002800F0F68032463B4630463946A5
:103A6000FCF7AAFD7CA3D3E9002304460D46FCF72E
:103A7000A3FD7BA3D3E90023FCF7E8FB22462B46FA
:103A8000FCF79AFD78A3D3E90023FCF7DDFB22467F
:103A90002B46FCF791FD76A3D3E90023FCF7D6FB78
:103AA00022462B46FCF788FD73A3D3E90023FCF7DD
:103AB000CBFB22462B46FCF77FFD71A3D3E9002305
:103AC000FCF7C4FB22462B46FCF776FD82468B466C
:103AD0000022714B20462946FCF76EFD5246804677
:103AE00089465B4620462946FCF766FD53EC182BB9
:103AF00004460D4630463946FCF75EFD02460B464D
:103B000020462946FCF7A0FB02460B4640464946A4
:103B1000FCF79AFB02460B4600206049FCF794FB39
:103B200041EC100B03B0BDEC028BBDE8F08F10EE42
:103B3000102A10EE100A3B463946FCF73DFD46A31D
:103B4000D3E9002304460D46FCF736FD44A3D3E930
:103B50000023FCF77BFB22462B46FCF72DFD42A3FE
:103B6000D3E90023FCF770FB22462B46FCF724FD2B
:103B70003FA3D3E90023FCF769FB22462B46FCF761
:103B80001BFD3DA3D3E90023FCF75EFB22462B4639
:103B9000FCF712FD3AA3D3E90023FCF757FB2B46B1
:103BA0002246FCF709FD3E4B994582468B468FDD48
:103BB0003C4B99453DDC0022A9F500130020374914
:103BC00090469946FCF740FBCDE900010022324BBC
:103BD00020462946FCF7F0FC42464B46FCF734FBF6
:103BE0005246804689465B4620462946FCF7E4FC5F
:103BF00053EC182B04460D4630463946FCF7DCFCE6
:103C000002460B4620462946FCF71EFB02460B46A1
:103C100040464946FCF718FB02460B46DDE9000129
:103C2000FCF712FB41EC100B03B0BDEC028BBDE8BE
:103C3000F08F9FED157B4FF000088DED007BDFF8D6
:103C40006890C3E79FED120B03B0BDEC028BBDE89B
:103C5000F08F00BFAFF30080D43888BEE9FAA8BD6A
:103C6000C4B1B4BD9EEE213EAD529C804F7E923ECB
:103C70009015CB19A001FA3E7751C1166CC1563F81
:103C80004C5555555555A53F000000000000E73F35
:103C9000000000000000F03F0000E03F0000F03FA7
:103CA0003233D33F0000E93F0000D23F0000000064
:103CB0002DE9F04FADF5197DB94CA29D089354F84C
:103CC00025400594013B12F1140F04900B910393CE
:103CD000C0F2B282B349D31E81FB0301DB17C3EBF1
:103CE000A10307930133A3EB8303DB00D3180693EF
:103CF000079A039BD61A059A12EB03081AD408F107
:103D0000010800240025B04420AFDDF88C9208E0C3
:103D100059F82600FCF7E6FB01364645E7E80201C4
:103D200008D0002EF4DA0136204629464645E7E859
:103D30000201F6D1059B002B089B4FEAC3030193B8
:103D40002ADB049A20A902EB030801EB030A059B76
:103D500072AA02EBC30B0DF5E079039B002B4FF029
:103D600000064FF0000711DB049C554675E902235D
:103D7000F4E80201FCF720FC02460B4630463946C7
:103D8000FCF764FA444506460F46EFD1E9E80267BE
:103D9000D9450AF1080AE0D10198049C05990191DE
:103DA00020448B0083460BA8A3F10802C3180A9392
:103DB0000CAB13440993019A98A901EBC203002AA2
:103DC00053E9284529DD0DF5E07A0AEBC2080DF12B
:103DD00030090022744B20462946FCF7EDFBFCF726
:103DE00085FEFCF77FFB0022704B06460F46FCF772
:103DF000E3FB02460B4620462946FCF725FAFCF772
:103E000075FE78E9022349F8040B39463046FCF781
:103E10001DFAD04504460D46DBD1DDF8189045EC7F
:103E2000104B484600F0ACFC55EC104B00224FF014
:103E30007F5310EE100A2946FCF7BEFB41EC100B35
:103E400000F01AFC002251EC100B594BFCF7B4FBAC
:103E500002460B4620462946FCF7F6F90D46044675
:103E6000FCF744FE8046FCF73DFB0B460246294624
:103E70002046FCF7E9F94B46002B06460F4640F377
:103E80009980019A0CA9013AC9F1180351F82250FE
:103E900045FA03F101FA03F3EB1AC9F117050CA86F
:103EA00043FA05F5002D40F82230884400F38C8059
:103EB0000022002330463946FCF7E6FD002800F0DA
:103EC0009282019B059A03F1FF394A4510DC03F108
:103ED00080430CAA013B0A9802EB8303002253F8AB
:103EE0000419834242EA0102F9D1002A40F0DB8042
:103EF000059B0CAA013B52F82330002B40F0CE80EA
:103F0000099A012352F8041901330029FAD00199C2
:103F10004A1CCB1802939146079B089902EB030AAF
:103F2000019B0B441D4620AB0AF1804A03EBC505FB
:103F3000A39B0AF1FF3A03EB8A0A70AB03EBC203BF
:103F400001935AF8040FFCF7CDFA0B460399024689
:103F5000A8460029E8E802234FF000064FF00007CA
:103F600011DB049C01E075E90223F4E80201FCF78F
:103F700023FB02460B4630463946FCF767F95C45A1
:103F800006460F46EFD1019BE3E802670193029BCF
:103F900009F1010999454546D3DD01930BE700BFBF
:103FA000A84E0008ABAAAA2A0000703E000070418B
:103FB0000000204069D1019B0CAA013B52F823501C
:103FC000ED15002D7FF774AF019B002B08F1010860
:103FD00040F307820C9C002C3AD1019B012B09D0A5
:103FE0000CA9012251F8044F531C9CBB1A46019B9B
:103FF0009342F7D1069B002B0EDD012B00F01181BF
:10400000022B09D1019B5A1E0CAB0CA953F822308C
:10401000C3F3150341F82230022D7FF449AF324635
:104020003B4600209449FCF70FF906460F46002C4A
:104030003FF43EAF06989FED8C0B00F0A1FB30469D
:10404000394653EC102BFCF7FFF806460F462FE7D6
:10405000012300220CA9C4F1807441F82240019987
:10406000994210DD0CAA0CA852F8232000EB830320
:1040700000EB81006FF07F4100E01A688A1A43F874
:10408000042B8342F9D10124B4E700227B4BFCF7D7
:1040900019FD002840F0D580054609E7019B5A1C10
:1040A0009146029238E70CAB069A53F82930CDF8C6
:1040B0001C80183A0495069273B9019B03F1804362
:1040C000023B0CA901EB830353F8041909F1FF39F2
:1040D000183A0029F8D0069206989FED630B00F07D
:1040E0004FFBB9F1000F55EC104BC0F2DD814FEAE8
:1040F000C90370AA02EB0308069309F101060CAB91
:10410000DFF87CB14FF0000A08F1080703EB8606E0
:1041100056F8040DFCF7E6F922462B46FCF74CFA5C
:104120005B4667E90201524620462946FCF744FAFD
:104130000CAB9E4204460D46EAD1CDF80890DDF85E
:10414000149048ABB9F1000F0393C34601934FF0AD
:10415000000A2BDBDFF82C815D4645A3D3E9002361
:1041600000260027002403E0544510DCF8E8022371
:10417000F5E80201FCF720FA02460B4630463946C4
:10418000FCF764F80134A14506460F46ECDA019BC2
:10419000029AE3E8026792450193ABF1080B0AF13A
:1041A000010306D0B9F1000F9A46D3DA00260027A2
:1041B000EDE7A29BDDF80890032B2BD8DFE813F086
:1041C000F600E500E500660048AB002400250393F7
:1041D00003992B462246D1E90001FCF735F8049BF0
:1041E000002B40F040810B9BB9F1000FC3E9004563
:1041F0000DDD4AAD01240134F5E80223FCF726F871
:10420000A145F8DA049B13B101F1004319460B9B59
:10421000C3E90201079B03F007000DF5197DBDE816
:10422000F08F019B5A1E0CAB0CA953F82230C3F33C
:10423000160341F82230EFE600216FF017030791D3
:1042400054E5019B002B08F10108C8BF02253FF788
:10425000C1AE32463B4600200749FBF7F5FF022579
:1042600006460F4624E600BF000000000000F03FB5
:1042700000000040FB21F93F0000F03F0000E03F5C
:104280000000703E704E000848AB0393B9F1000F78
:1042900040F31D81039A4FEAC9030193D318D3E970
:1042A00000AB984678E9026752465B46304639468D
:1042B000FBF7CCFF04460D4602460B463046394616
:1042C000FBF7C2FF5B465246FBF7C0FF039B43452B
:1042D000A246AB46C8E90201C8E90045E2D1B9F1FE
:1042E000010F40F3F480019B039A09F1005909F191
:1042F000FF3913444FEAC901D3E9006701F1080A05
:10430000019192440DF5947B7AE9028932463B464D
:1043100040464946FBF79AFF04460D4602460B46C7
:1043200040464946FBF790FF32463B46FBF78EFF7F
:10433000D34526462F46CAE90201CAE90045E3D122
:10434000019C039B1034002000211C4403F1100544
:1043500074E90223FBF77AFFA542F9D1039C049E7E
:10436000D4E90023D4E90245002E40F087800B9E5B
:10437000C6E90023079BC6E9040103F00700C6E96C
:1043800002450DF5197DBDE8F08F069E039F0836A6
:10439000002400253E4476E9022320462946FBF707
:1043A00055FFB74204460D46F5D111E7069C039D23
:1043B0000834002000212C4474E90223FBF746FF57
:1043C000A542F9D1049B13B101F1004319460B9B9F
:1043D000C3E90001079B03F007000DF5197DBDE857
:1043E000F08F002406E6069B0495584247EC106BBC
:1043F000CDF81C8000F0C4F955EC104B0022354B71
:1044000010EE100A2946FCF75DFB10B30022324B78
:1044100020462946FCF7D0F8FCF768FB0646FCF777
:1044200061F800222B4BFCF7C7F802460B462046EA
:104430002946FBF709FFFCF759FB069B019A183345
:1044400002F1010906930CAB43F8220043F82960FE
:1044500042E620462946FCF749FB019B0CAA9946F7
:1044600042F8230038E622460B9C05F10043B9F1DF
:10447000000FC4E900233FF7BCAEC5E603F10047D7
:1044800001F100430B99C1E90403079B26469446BA
:1044900005F1004403F00700C1E900C7C1E9026467
:1044A0000DF5197DBDE8F08FA29B032B3FF6B2AE50
:1044B00001A252F823F000BFC9440008C941000816
:1044C000C941000889420008002000217AE7002045
:1044D000002143E7000070410000703E0000000032
:1044E0002DE9F04F55EC104B2DED028BB0EE418ACB
:1044F000F0EE618A25F00043B3F1795F83B0824624
:1045000007DA10EE100A2946FCF7F0FA002800F04E
:104510008E8022462B4620462946FCF74DF806465B
:104520000F4602460B4620462946FCF745F847A3AE
:10453000D3E900238046894630463946FCF73CF8EB
:1045400044A3D3E90023FBF77FFE32463B46FCF74A
:1045500033F842A3D3E90023FBF778FE32463B460B
:10456000FCF72AF83FA3D3E90023FBF76DFE3246A0
:104570003B46FCF721F83DA3D3E90023FBF766FE99
:10458000CDE90001BAF1000F37D000222E4B51ECDB
:10459000180BFCF711F8DDE9002382468B464046F4
:1045A0004946FCF709F802460B4650465946FBF7C8
:1045B0004BFE32463B46FBF7FFFF53EC182BFBF755
:1045C00043FE1FA3D3E9002306460F464046494653
:1045D000FBF7F2FF02460B4630463946FBF736FE44
:1045E00002460B4620462946FBF72EFE41EC100BF7
:1045F00003B0BDEC028BBDE8F08F02460B4630469F
:104600003946FBF7D9FF0EA3D3E90023FBF71CFEC5
:1046100042464B46FBF7D0FF22462B46FBF716FEE1
:1046200041EC100B03B0BDEC028BBDE8F08F45EC04
:10463000104B03B0BDEC028BBDE8F08FAFF30080F0
:10464000495555555555C53F0000E03F7CD5CF5ADB
:104650003AD9E53DEB9C2B8AE6E55A3E7DFEB15703
:10466000E31DC73ED561C119A0012A3FA6F810116C
:104670001111813F0000000051EC100BF8B5C1F39F
:104680000A53A3F2FF35132D0C4610EE106A30DCEE
:10469000002D1EDB384F2F4107EA010303432DD0C5
:1046A00033A3D3E90023FBF7D1FD00220023FCF75D
:1046B00013FA48B1002C04DA4FF4801343FA05F5DD
:1046C0002C4424EA070400262346324643EC102BF0
:1046D000F8BD27A3D3E90023FBF7B8FD0022002390
:1046E000FCF7FAF90028EFD0002C29DB002634462D
:1046F000EAE7332D05DDB5F5806F19D041EC100BDD
:10470000F8BDA3F213434FF0FF37DF400742F5D067
:1047100017A3D3E90023FBF799FD00220023FCF740
:10472000DBF90028D0D0002C13DB26EA0706CBE704
:1047300010EE102A0B46FBF789FD41EC100BF8BD7B
:1047400024F000430D4A1E43002E18BF14460026D5
:10475000BAE7142D08D00123C5F1340503FA05F595
:10476000AE1928BFE418E0E70134DEE7AFF30080BC
:104770009C7500883CE4377EFFFF0F000000F0BF0F
:1047800038B553EC102BC3F30A511C46054681BBC8
:1047900010EE101A23F00044214329D019460022BC
:1047A0003D4B3E4C10EE100AFBF706FFA5420246B9
:1047B0000B4616DB0C46C1F30A513639294440F248
:1047C000FE70814221DC002947DC11F1350F34DA1B
:1047D0004CF250318D4218DC002B27A1D1E90001A9
:1047E00044DB25A3D3E90023FBF7E6FE41EC100BE5
:1047F00038BD40F2FF708142E0D110EE100A194638
:10480000FBF724FD41EC100B38BD002B1CA1D1E9B6
:10481000000107DB1AA3D3E90023FBF7CDFE41EC2F
:10482000100B38BD18A1D1E9000115A3D3E900236D
:10483000FBF7C2FE41EC100BF3E724F0FF4424F435
:10484000E004363144EA0153104619460022144B65
:10485000FBF7B2FE41EC100B38BD24F0FF4424F40A
:10486000E00444EA015343EC102B38BD08A1D1E920
:104870000001B6E7AFF3008059F3F8C21F6EA5013F
:104880009C7500883CE4377E9C7500883CE437FECC
:1048900059F3F8C21F6EA58100005043B03CFFFFE2
:1048A0000000903C024B58221A604FF0FF307047D6
:1048B000D4010020024B58221A604FF0FF3070479D
:1048C000D4010020024B58221A600020704700BF1C
:1048D000D4010020024B58221A604FF0FF3070477D
:1048E000D4010020024B58221A604FF0FF3070476D
:1048F000D4010020044A05491368002B08BF0B4669
:10490000184410601846704794000020D801002019
:10491000024B58221A604FF0FF307047D40100203C
:104920002DE9F04F099E8A468E46154604461946E3
:10493000002B40F0CA805245B2FA82F747D94FB1F6
:10494000C7F120080AFA07F320FA08F8BD4048EA40
:10495000030EBC404FEA15491FFA85F8BEFBF9FB70
:10496000220C09FB1BE30BFB08FC42EA034AD4457B
:1049700029D915EB0A0A0BF1FF3004D2D44502D92C
:10498000ABF10200AA44AAEB0C0AA4B2BAFBF9F3F9
:1049900009FB13AA03FB08F844EA0A44A04514D90A
:1049A0002C1903F1FF3203D2A04501D99A1E2C44E1
:1049B000A4EB080442EA00401EB1FC40002334602E
:1049C0007360BDE8F08F5846DDE71A46F0E702B99C
:1049D000FFDE9FBBAAEB020301214FEA154CAAB2EE
:1049E000B3FBFCFE200C0CFB1E330EFB02F840EA6E
:1049F0000343984565D9EB180EF1FF3004D2984572
:104A000002D9AEF102002B44A3EB0803A4B2B3FB1E
:104A1000FCFE0CFB1E330EFB02F244EA0344A242EE
:104A200051D92C190EF1FF3304D2A24202D9AEF1B2
:104A300002032C44A41A43EA0040BDE7C7F1200852
:104A40002AFA08F9BD4020FA08F80AFA07F348EAFA
:104A500003024FEA154CABB2B9FBFCFE110C0CFB88
:104A60001E900EFB03F841EA0040804504FA07F46B
:104A700023D928180EF1FF3104D2804502D9AEF1B6
:104A800002012844A0EB080092B2B0FBFCFE0CFB34
:104A90001E000EFB03F842EA004398450FD9EB18BD
:104AA0000EF1FF3204D2984502D9AEF102022B4436
:104AB000A3EB080342EA01418FE77146E2E7724641
:104AC000F6E77046A0E77346B4E7534505D90EB143
:104AD000C6E9000A0021084673E7B3FA83F8B8F183
:104AE000000F10D1534501D382420AD8841A6AEBD1
:104AF000030301209E46002E65D0C6E9004E00212A
:104B00005FE74046F7E7C8F1200903FA08F322FA05
:104B100009F71F4320FA09F40AFA08F32AFA09F5FB
:104B20001C434FEA174A02FA08FC00FA08FEB5FBDC
:104B3000FAF2BBB20AFB1250250C02FB03F145EA64
:104B40000045A9423BD97D1902F1FF3003D2A942A9
:104B500001D9901E3D446D1AA4B2B5FBFAF20AFBCE
:104B60001255534344EA05418B422AD9791802F180
:104B7000FF3403D28B4201D9941E394444EA0040E9
:104B8000A0FB0C45C91AA94223462A4602D306D1E6
:104B9000A64504D2B4EB0C0365EB0702013896B1CD
:104BA000BEEB030461EB020E0EFA09F924FA08F3D6
:104BB00049EA03032EFA08F1C6E900319FE71046DF
:104BC000C9E71446DAE73146FBE60000F8B500BF56
:104BD000F8BC08BC9E467047F8B500BFF8BC08BCDE
:044BE0009E46704736
:104BE80020256C64200A000000000000000000007E
:104BF800010203040607080900000000010203047B
:104C0800100000200000000000000000000000006C
:104C1800000000000000000000000000000000008C
:104C2800000000000000000000000000000000007C
:104C3800000000000000000000000000000000006C
:104C4800000000000000000000000000000000005C
:104C5800000000000000000000000000000000004C
:104C680000000000232D302B2000686C4C00656686
:104C780067454647003031323334353637383941A5
:104C880042434445460030313233343536373839BB
:104C980061626364656600004FBB610567ACDD3F18
:104CA800182D4454FB21E93F9BF681D20B73EF3F4B
:104CB800182D4454FB21F93FE2652F227F2B7A3CC3
:104CC800075C143326A6813CBDCBF07A8807703C7C
:104CD800075C143326A6913CFB21F93FFB210940D0
:104CE8007CD91240FB2119407A6A1F407CD92240A6
:104CF800BBFD2540FB2129403A462C407A6A2F40CB
:104D08005C4731407CD932409C6B3440BBFD354018
:104D1800DB8F3740FB2139401BB43A403A463C40D0
:104D28005AD83D407A6A3F404C7E40405C474140FB
:104D38006C1042407CD942408CA243409C6B44405A
:104D4800AC344540BBFD4540CBC64640DB8F4740B1
:104D5800EB584840FB21494083F9A200444E6E00BD
:104D6800FC291500D1572700DD34F50062DBC000AF
:104D78003C999500419043006351FE00BBDEAB00B7
:104D8800B761C5003A6E2400D24D42004906E000E2
:104D980009EA2E001C92D100EB1DFE0029B11C006F
:104DA800E83EA700F535820044BB2E009CE984004C
:104DB800B4267000417E5F00D691390053833900D4
:104DC8009CF439008B5F840028F9BD00F81F3B0074
:104DD800DEFF97000F980500112FEF000A5A8B008D
:104DE8006D1F6D00CF7E360009CB2700464FB700F8
:104DF8009E663F002DEA5F00BA277500E5EBC70005
:104E08003D7BF100F739070092528A00FB6BEA00FC
:104E18001FB15F00085D8D00300356007BFC460023
:104E2800F0AB6B0020BCCF0036F49A00E3A91D005C
:104E38005E619100081BE60085996500A0145F007B
:104E48008D40680080D8FF0027734D0006063100AA
:104E5800CA561500C9A873007BE260006B8CC000BD
:104E680000000040FB21F93F000000002D44743E83
:104E7800000000809846F83C0000006051CC783B68
:104E880000000080831BF0390000004020257A389C
:104E9800000000802282E336000000001DF369351F
:104EA80002000000030000000400000006000000EB
:084EB80068FAFF7F0100000011
:044EC000950B000846
:044EC400710B000866
:104EC80001000000100000000024F4001000002081
:104ED800000000002C4C00084C4C00080C4C00084A
:104EE80000000000000000000000000000000000BA
:104EF80000000000000000000000000000000000AA
:104F08000000000000000000000000000000000099
:104F18000000000000000000000000000000000089
:104F28000000000000000000000000000000000079
:04000005080022A12C
:00000001FF
