:020000040800F2
:1000000000800120BD140008990500089B05000828
:100010009D0500089F050008A105000800000000DC
:10002000000000000000000000000000A305000820
:10003000A505000800000000A7050008A9050008A4
:100040000D1500080D1500080D1500080D15000808
:100050000D1500080D1500080D1500080D150008F8
:100060000D1500080D1500080D1500080D150008E8
:100070000D1500080D1500080D1500080D150008D8
:100080000D1500080D1500080D15000800000000F2
:100090000000000000000000000000000D15000836
:1000A0000D1500080D1500080D1500080D150008A8
:1000B0000D1500080D1500080D1500080D15000898
:1000C0000D1500080D1500080D1500080D15000888
:1000D0000D1500080D1500080D15000800000000A2
:1000E0000D1500080D1500080D1500080000000092
:1000F0000000000000000000000000000D150008D6
:10010000000000000D1500080D1500080D15000871
:1001100000000000000000000000000000000000DF
:100120000D1500080D1500080D1500080D15000827
:100130000D15000800000000000000000000000095
:100140000000000000000000000000000D15000885
:100150000D1500080D1500080D1500080D150008F7
:100160000D1500080D15000800000000000000003B
:10017000000000000000000000000000000000007F
:10018000000000000D150008000000000000000045
:040190000D15000841
:1001A00001F0FF01102A2BDB10F0070F08D010F828
:1001B000013B013A8B422DD010F0070F42B3F6D12C
:1001C000F0B441EA012141EA014122F007047FF045
:1001D00000070023F0E80256083C85EA010586EA9C
:1001E000010685FA47F5A3FA87F586FA47F6A5FAD8
:1001F00087F68EB9EED1F0BC01F0FF0102F00702E4
:1002000032B110F8013B013A83EA010313B1F8D18E
:100210000020704701387047002D06BF354603386F
:10022000073815F0010F07D1013015F4807F02BFA8
:10023000013015F4C03F0130F0BC0138704700BFF9
:1002400053B94AB9002908BF00281CBF4FF0FF313D
:100250004FF0FF3000F00CB8ADF1080C6DE904CEA2
:1002600002F094F8DDF804E0DDE9022304B0704701
:10027000704700BF10B5054C227832B9044B13B15A
:100280000448AFF300800123237010BD70000020EC
:10029000000000004026000808B5034B1BB10349CD
:1002A0000348AFF3008008BD000000007400002088
:1002B0004026000830B595B03022002108A801F092
:1002C0004BF9002403940494059406940794019434
:1002D0001B4B1A6C42F080521A641B6C03F0805363
:1002E0000193019B0294174A136823F4404343F49B
:1002F00000431360136803F440430293029B0225FA
:10030000089501230B9310230C930E950F9408234B
:1003100010935423119312950423139308A800F00B
:100320002FFA0F230393049505944FF480530693FB
:100330000794294603A800F041FC15B030BD00BF6A
:10034000003802400070004008B500F05FFEFFF783
:10035000B1FF00F035F800F0A5F800F0C5FE00F0A0
:10036000A7FE054800F040F9034B1B685A6A0521B7
:10037000024801F0F9F8F7E7980000205826000835
:1003800010B582B004468DF804000A23012201A9A9
:10039000024801F026F8204602B010BD1C010020E2
:1003A00070B50C4616460025B54205DA14F8010B67
:1003B000FFF7E6FF0135F7E7304670BD70470000F4
:1003C00030B58BB0002407940894099400942F4B07
:1003D0001A6B42F004021A631A6B02F004020092D4
:1003E000009A01941A6B42F080021A631A6B02F0B1
:1003F00080020192019A02941A6B42F001021A6380
:100400001A6B02F001020292029A03941A6B42F0F4
:1004100002021A631A6B02F002020392039A049416
:100420001A6B42F008021A631B6B03F00803049373
:10043000049B4FF63F6305930325069505A91448D1
:1004400000F090FC05950695079405A9114800F069
:1004500089FC47F6E37305930695079405A90E48B2
:1004600000F080FC4FF2F77305930695079405A9F9
:100470000A4800F077FC042305930695079405A924
:10048000074800F06FFC0BB030BD00BF00380240E1
:1004900000080240001C024000000240000402402C
:1004A000000C024000B58DB02022002104A801F00C
:1004B00053F800230193029311484FF080420260E9
:1004C000436083604FF68D12C26003610323039380
:1004D00001230593099303A900F0DCF850B9002328
:1004E0000193029301A9064800F020F928B90DB044
:1004F0005DF804FBFFF762FFF1E7FFF75FFFF6E748
:100500009800002070B588B00023039304930593EE
:10051000069307930368B3F1804F01D008B070BD14
:100520000025009503F50E331A6C42F001021A649F
:100530001A6C02F001020092009A01951A6B42F0C7
:1005400001021A631A6B02F001020192019A0295EC
:100550001A6B42F002021A631B6B03F00203029350
:10056000029B4FF400430393022604960124059452
:10057000079403A9064800F0F5FB082303930496AB
:1005800005940695079403A9024800F0EBFBC5E724
:1005900000000240000402407047FEE7FEE7FEE76D
:1005A000FEE770477047704708B500F049FD08BD89
:1005B00082B0002100910B4B5A6C42F480425A6485
:1005C0005A6C02F480420092009A01911A6C42F037
:1005D00080521A641B6C03F080530193019B02B09C
:1005E000704700BF003802400268D36843F001033F
:1005F000D3600268136843F0010313600020704762
:100600000368234A90420ED0B0F1804F0BD0A2F580
:100610007C42904207D002F58062904203D002F5FE
:100620008062904203D123F070034A681343184A52
:1006300090421AD0B0F1804F17D0A2F57C42904280
:1006400013D002F5806290420FD002F58062904292
:100650000BD002F59A32904207D002F580629042A8
:1006600003D002F58062904203D123F44073CA683C
:10067000134303608B68C3620B688362044B984228
:1006800002D00123436170470B690363F9E700BFA0
:1006900000000140002847D0F8B505460C4690F808
:1006A0003930002B3BD0022385F839302A68936813
:1006B00023F007039360294651F8040BFFF7A0FFCE
:1006C00029688A688E690F6A2068104326F440768C
:1006D00026F00306A268A36942EA0323334323F406
:1006E0007C4323F0FC03E668E26946EA02261E43E7
:1006F000226A1303226943EA0213334327F0AA074D
:100700006268646942EA04123A43886029688B612E
:100710002B681A62012385F839300020F8BD80F873
:100720003830FFF7EFFEBEE70120704790F8383011
:10073000012B22D030B4012280F83820022380F827
:1007400039300468636823F0700363600468636889
:100750000D682B4363600468A36823F08003A360E3
:100760000468A36849680B43A36080F8392000231C
:1007700080F83830184630BC7047022070470000BF
:10078000002800F0B98170B582B00446036813F008
:10079000010F3BD0A64B9B6803F00C03042B2CD01D
:1007A000A34B9B6803F00C03082B21D06368B3F5BF
:1007B000803F4FD0B3F5A02F52D09D4B1A6822F442
:1007C00080321A601A6822F480221A606368002B53
:1007D00050D000F041FC0546954B1B6813F4003FD8
:1007E00014D100F039FC401B6428F5D903208AE1BC
:1007F0008F4B5B6813F4800FD8D08D4B1B6813F4BC
:10080000003F03D06368002B00F07881236813F069
:10081000020F54D0864B9B6813F00C0F3ED0844BD4
:100820009B6803F00C03082B33D0E368002B67D0E0
:10083000804B01221A6000F00FFC05467C4B1B68C0
:1008400013F0020F53D100F007FC401B0228F5D92A
:10085000032058E1764A136843F480331360B5E708
:10086000734B1A6842F480221A601A6842F480328C
:100870001A60ABE700F0F0FB05466D4B1B6813F404
:10088000003FC3D000F0E8FB401B6428F5D90320EB
:1008900039E1674B5B6813F4800FC6D1644B1B686A
:1008A00013F0020F03D0E368012B40F02981604A66
:1008B000136823F0F803216943EAC1031360236836
:1008C00013F0080F40D0636963B35B4B01221A60D9
:1008D00000F0C2FB0546564B5B6F13F0020F33D19D
:1008E00000F0BAFB401B0228F5D903200BE1504A67
:1008F000136823F0F803216943EAC1031360DEE7BC
:100900004C4B00221A6000F0A7FB0546484B1B68C1
:1009100013F0020FD3D000F09FFB401B0228F5D943
:100920000320F0E0444B00221A6000F095FB0546DE
:100930003F4B5B6F13F0020F06D000F08DFB401BA6
:100940000228F5D90320DEE0236813F0040F78D0E5
:10095000374B1B6C13F0805F33D100230193344B72
:100960001A6C42F080521A641B6C03F0805301939E
:10097000019B0125314B1B6813F4807F23D0A368B2
:10098000012B34D0052B38D0294B1A6F22F00102ED
:100990001A671A6F22F004021A67A368002B36D078
:1009A00000F05AFB0646224B1B6F13F0020F47D193
:1009B00000F052FB801B41F288339842F3D90320A8
:1009C000A1E00025D6E71D4A136843F48073136045
:1009D00000F042FB0646194B1B6813F4807FCED112
:1009E00000F03AFB801B0228F5D903208BE0104A67
:1009F000136F43F001031367CFE70D4B1A6F42F0FB
:100A000004021A671A6F42F001021A67C5E700F084
:100A100023FB0646064B1B6F13F0020F10D000F0AD
:100A20001BFB801B41F288339842F3D903206AE014
:100A30000038024000004742800E474200700040EC
:100A4000E5B9A369002B5DD0314A926802F00C022F
:100A5000082A5AD0022B17D02E4B00221A6000F021
:100A6000FBFA04462A4B1B6813F0007F42D000F0CB
:100A7000F3FA001B0228F5D9032044E0244A136C42
:100A800023F080531364DCE7224B00221A6000F04D
:100A9000E3FA05461E4B1B6813F0007F06D000F0FA
:100AA000DBFA401B0228F5D903202CE0E369226A17
:100AB0001343626A43EA8213A26A5208013A43EA84
:100AC0000243E26A43EA0263114A5360114B012276
:100AD0001A6000F0C1FA04460D4B1B6813F0007F4A
:100AE00006D100F0B9FA001B0228F5D903200AE06C
:100AF000002008E0002006E001207047012002E00D
:100B0000012000E0002002B070BD0120FBE700BF23
:100B10000038024060004742254B9B6803F00C03FD
:100B2000042B40D0082B40D170B5214B5A6802F0FD
:100B30003F025B6813F4800F12D01D4B5968C1F35C
:100B4000881100231B48A1FB0001FFF779FB184B1C
:100B50005B68C3F3014301335B00B0FBF3F070BD8E
:100B6000134B5868C0F388100546002643011B1A32
:100B700066EB0604A10141EA93619801C01A61EB9A
:100B80000401CB0043EA5073C4001946601946EBD8
:100B900001018B0243EA90538402204619463346F2
:100BA000FFF74EFBD3E7034870470348704700BF89
:100BB0000038024040787D010024F400002800F055
:100BC0009A8070B50446504B1B6803F00F038B42AC
:100BD00008D2CBB24C4A1370136803F00F038B4258
:100BE00040F08B80236813F0020F17D013F0040F2E
:100BF00004D0464A936843F4E0539360236813F0AB
:100C0000080F04D0414A936843F4604393603F4A1D
:100C1000936823F0F003A068034393600D462368B4
:100C200013F0010F32D06368012B21D09A1E012AE4
:100C300025D9364A126812F0020F60D033498A680B
:100C400022F0030213438B6000F006FA06462F4B96
:100C50009B6803F00C036268B3EB820F16D000F0C0
:100C6000FBF9801B41F288339842F0D9032041E020
:100C7000264A126812F4003FE0D101203AE0234AEC
:100C8000126812F0007FD9D1012033E01E4B1B689F
:100C900003F00F03AB4207D9EAB21B4B1A701B6873
:100CA00003F00F03AB422CD1236813F0040F06D0DE
:100CB000164A936823F4E053E1680B43936023687A
:100CC00013F0080F07D0114A936823F46043216999
:100CD00043EAC1039360FFF71FFF0C4B9B68C3F30C
:100CE00003130B4AD35CD8400A4B1860002000F075
:100CF00067F9002070BD012070470120FAE701204C
:100D0000F8E70120F6E700BF003C0240003802404F
:100D10006426000808000020014B1868704700BFD7
:100D20000800002008B5FFF7F7FF044B9B68C3F3EA
:100D30008223034AD35CD84008BD00BF003802407C
:100D40007426000808B5FFF7E7FF044B9B68C3F360
:100D50004233034AD35CD84008BD00BF003802408C
:100D60007426000800230F2B00F2C480F0B482B078
:100D700039E0042200E00022B2403A4302355E4EE0
:100D800046F825205D4A1568E24302EA05064F68E9
:100D900017F4803F01D044EA0506584D2E606D6877
:100DA00002EA05064F6817F4003F01D044EA050641
:100DB000524D6E60AD6802EA05064F6817F4801F59
:100DC00001D044EA05064D4DAE60ED682A404E68FC
:100DD00016F4001F01D044EA0502484CE2600133DA
:100DE0000F2B00F2848001229A400C681440A2422A
:100DF000F5D14D68022D01D0122D10D1DE08083634
:100E000050F826C003F00705AF000F25BD402CEABF
:100E1000050C0D69BD4045EA0C0540F826500668F2
:100E20005F000325BD40ED4305EA060C4E6806F061
:100E30000306BE4046EA0C0606604E6806F1FF3C1B
:100E4000BCF1010F03D9112E01D0122E10D18668EA
:100E500005EA060CCE68BE4046EA0C068660466887
:100E600026EA02024E68C6F300169E40164346600C
:100E7000C26815408A68BA402A43C2604A6812F0C4
:100E8000805FACD0002201921D4A556C45F480452C
:100E90005564526C02F480420192019A9D08AE1C86
:100EA000154A52F8267003F0030296000F22B24052
:100EB00027EA0207134A90423FF45DAF02F58062D1
:100EC00090420ED002F5806290420CD002F5806212
:100ED00090420AD002F5806290423FF44AAF072266
:100EE0004AE7012248E7022246E7032244E702B02C
:100EF000F0BC7047704700BF00380140003C014023
:100F00000038024000000240074AD36823F4E0633F
:100F10001B041B0C000200F4E060184340F0BF60AB
:100F200040F40030D060704700ED00E030B4174B63
:100F3000DB68C3F30223C3F10704042C28BF042495
:100F40001D1D062D01D9033B00E000234FF0FF35A6
:100F500005FA04F421EA0401994005FA03F322EAB0
:100F600003031943002809DB0901C9B200F16040FD
:100F700000F5614080F8001330BC704700F00F00AE
:100F80000901C9B2024B1954F6E700BF00ED00E0B9
:100F900014ED00E00138B0F1807F0AD2064B5860B2
:100FA000064AF02182F823100020986007221A6078
:100FB00070470120704700BF10E000E000ED00E046
:100FC00010B504460E4B18784FF47A73B3FBF0F368
:100FD0000C4A1068B0FBF3F0FFF7DCFF68B90F2C88
:100FE00001D901200AE0002221464FF0FF30FFF72F
:100FF0009DFF054B1C60002000E0012010BD00BFDC
:1010000000000020080000200400002008B50B4B61
:101010001A6842F400721A601A6842F480621A6018
:101020001A6842F480721A600320FFF76DFF0020F7
:10103000FFF7C6FFFFF7BCFA002008BD003C0240E6
:10104000034A1168034B1B780B441360704700BFC1
:10105000D400002000000020014B1868704700BF3A
:10106000D40000200F49D1F8883043F47003C1F850
:1010700088300D4B1A6842F001021A600020986017
:101080001A6822F0847222F480321A60074A5A6089
:101090001A6822F480221A60D8604FF000638B60D7
:1010A000704700BF00ED00E000380240103000241F
:1010B00008B50B480B4B03604FF4E133436000234A
:1010C0008360C36003610C2242618361C361036278
:1010D00000F05FF900B908BDFFF770F9FBE700BF4A
:1010E0001C0100200044004008B50B480B4B036076
:1010F0004FF4E133436000238360C36003610C223B
:1011000042618361C361036200F043F900B908BD25
:10111000FFF754F9FBE700BFD8000020001401409E
:1011200000B58BB0002305930693079308930993AA
:101130000368284A934205D0274A934225D00BB032
:101140005DF804FB00210191244B1A6C42F400323B
:101150001A641A6C02F400320192019A02911A6B1D
:1011600042F001021A631B6B03F001030293029B1E
:101170001C23059302230693032308930723099353
:1011800005A91748FFF7EEFDD9E700210391134B9E
:101190005A6C42F020025A645A6C02F02002039208
:1011A000039A04911A6B42F004021A631B6B03F05A
:1011B00004030493049B4FF4E07305930223069306
:1011C000032308930823099305A90648FFF7CAFDDE
:1011D000B5E700BF00440040001401400038024061
:1011E0000000024000080240F8B504460268D368D7
:1011F00023F00C03D36001680A6922F47C528369EE
:10120000C0690343206A0343E0680343134343F484
:1012100000630B612168CA6822F4164222F00C02B6
:10122000A3682069034360690343134343F4004305
:10123000CB602268536923F4407353612368364AB4
:10124000934236D002F58062934232D0FFF76AFDB6
:1012500000EB800000EB800065686D00B0FBF5F5E9
:101260002E4EA6FB05356D092D01FFF75BFD00EB4A
:10127000800000EB800063685B00B0FBF3F7FFF7D2
:1012800051FD00EB800000EB800063685B00B0FB69
:10129000F3F3A6FB03235B09642000FB13731B011C
:1012A0003233A6FB0323C3F3431322682B4393601B
:1012B00031E0FFF747FD00EB800000EB8000656840
:1012C0006D00B0FBF5F5154EA6FB05356D092D013A
:1012D000FFF738FD00EB800000EB800063685B00E7
:1012E000B0FBF3F7FFF72EFD00EB800000EB800072
:1012F00063685B00B0FBF3F3A6FB03235B09642088
:1013000000FB13731B013233A6FB0323C3F3431308
:1013100022682B439360F8BD001001401F85EB51FC
:101320002DE9F04105460F4616469846069C2B6867
:101330001B6837EA03030CBF01230023B34225D106
:10134000B4F1FF3FF3D02CB1FFF786FEA0EB08000D
:10135000A042ECD92A68D36823F08003D3602A68BE
:10136000D36823F02003D3602A68D36823F4807302
:10137000D3602A68536923F001035361012385F880
:101380003D30002385F83C30032000E00020BDE81C
:10139000F08120B310B5044690F83D30D3B102235C
:1013A00084F83D302046FFF71FFF2268136923F4BD
:1013B000804313612268536923F02A035361226832
:1013C000D36843F40053D36000202064012384F8E1
:1013D0003D3010BD80F83C30FFF7A2FEDFE7012072
:1013E00070472DE9F04182B01E4690F83D30DBB2E7
:1013F000012B55D104460D469046002951D0002AB4
:101400004FD090F83C30012B4FD0012380F83C3076
:1014100000230364122380F83D30FFF71DFE0746CA
:10142000A4F82880A4F82A8010E000963B46002209
:1014300080212046FFF774FF002838D12B882268CE
:10144000C3F3080353602369C3B90235638D9BB2AC
:10145000B3B1638D013B9BB26385A368B3F5805F35
:10146000E3D000963B46002280212046FFF758FF3C
:10147000F8B915F8012B23685A60E7E70135E5E76D
:1014800000963B46002240212046FFF749FF0346D5
:1014900088B9012284F83D20002284F83C2000E035
:1014A0000223184602B0BDE8F0810223F9E70323C6
:1014B000F7E70323F5E70323F3E70000DFF834D071
:1014C000002103E00C4B5B58435004310B480C4B9C
:1014D00042189A42F6D30B4A02E0002342F8043B3A
:1014E000094B9A42F9D3FFF7BDFD00F011F8FEF762
:1014F0002BFF7047008001202427000800000020F7
:10150000700000207000002064010020FEE7000051
:1015100070B50D4D0D4C641BA4100026A64209D1D8
:101520000B4D0C4C01F08CF8641BA4100026A64255
:1015300005D170BD55F8043B98470136EEE755F8E4
:10154000043B98470136F2E71C2700081C270008D7
:101550001C2700082027000802440346934200D1BC
:10156000704703F8011BF9E70FB40A4B13B51C6869
:1015700024B1A36913B9204600F04EF805AB049AD4
:10158000A1680193204600F055F902B0BDE8104073
:1015900004B070470C000020002310B50446C0E9D9
:1015A0000033836081814366C281C0E90433836173
:1015B000194608225C30FFF7CFFF054B6362054BED
:1015C000A362054BE362054B2462236310BD00BF99
:1015D0006D1A00088F1A0008C71A0008EB1A0008D5
:1015E000014900F085B800BFC51D000870B54A1E4E
:1015F000682555430E4605F1740100F097F804463E
:1016000040B10021C0E900160C30A06005F168026D
:10161000FFF7A2FF204670BD836910B5044633BBB7
:10162000C0E912330365124B124A1B68826298426A
:1016300004BF0123836100F01FF86060204600F0C2
:101640001BF8A060204600F017F80022E06004219B
:101650006068FFF7A1FF01220921A068FFF79CFF46
:1016600002221221E068FFF797FF0123A36110BD5A
:101670007C260008E1150008F8B51B4B1E68B3690D
:10168000074613B93046FFF7C7FF4836D6E901349D
:10169000013B03D53368DBB13668F7E7B4F90C508A
:1016A000A5B9124B6566C4E90055A560C4E90335C8
:1016B000C4E905550822294604F15C00FFF74CFFF8
:1016C000C4E90D55C4E912552046F8BD6834DFE77A
:1016D00004213846FFF78AFF044630600028DBD13A
:1016E0000C233B60F0E700BF7C2600080100FFFFF1
:1016F0002DE9F8438046894600F14804002614B9D4
:101700003046BDE8F883D4E90175013F01D524686E
:10171000F5E7AB89012B07D9B5F90E30013303D0BA
:1017200029464046C84706436835EEE7F8B5CD1C64
:1017300025F0030508350C2D38BF0C25002D064675
:1017400001DBA94203D90C2333600020F8BD00F06F
:10175000D9FB21490A6814469CB9204F3B6823B93C
:101760002146304600F072F938602946304600F0D4
:101770006DF9431C23D10C233360304600F0C3FBCA
:10178000E3E723685B1B17D40B2B03D923601C44AE
:10179000256004E06368A2420CBF0B6053603046D2
:1017A00000F0B1FB04F10B00231D20F00700C21A6A
:1017B000CCD01B1AA350C9E722466468CCE7C41CEE
:1017C00024F00304A042E3D0211A304600F03EF991
:1017D0000130DDD1CFE700BF8C0000209000002059
:1017E0009368013B002B10B4936008DA9469A3421C
:1017F00001DB0A2903D15DF8044B00F07BB91368C3
:10180000581C1060197008465DF8044B7047F8B515
:1018100006460F461446D518AC4201D1002007E019
:101820003A4614F8011B3046FFF7DAFF431CF3D1A8
:10183000F8BD00002DE9F04F0D469DB014461E4640
:10184000074618B183690BB9FFF7E6FE774B9D4257
:101850005AD17D68AB89180760D52B69002B5DD004
:101860000023099320238DF82930DFF8C4910396D3
:1018700030238DF82A304FF0010A23461E4613F814
:10188000012B0AB1252AF9D1B6EB040B0BD05B462C
:10189000224629463846FFF7BAFF013000F0B880EB
:1018A000099B5B4409933378002B00F0B18000233F
:1018B0004FF0FF32CDE905230136049307938DF8ED
:1018C00053301A933446052214F8011B5848FEF78A
:1018D00067FC049B68BBD90644BF20228DF85320C7
:1018E0001A0744BF2B228DF8532032782A2A28D099
:1018F000079A344600200A26214611F8013B303B66
:10190000092B60D918BB29E04A4B9D4201D1BD6823
:10191000A0E7494B9D4208BFFD689BE72946384632
:1019200000F04CF900289BD04FF0FF301DB0BDE80F
:10193000F08FA0EB09000AFA00F018430490264645
:10194000C0E7039A111D12680391002A01DB079278
:1019500004E0524243F002030792049323782E2BB3
:101960000CD163782A2B33D1039B1A1D1B68039279
:10197000002BB8BF4FF0FF33023405932F4E217870
:1019800003223046FEF70CFC38B14023801B03FADB
:1019900000F0049B03430134049314F8011B28480E
:1019A0008DF828100622FEF7FBFB002835D0254BCA
:1019B00013BB039B073323F0070308330393099BEF
:1019C0004344099359E706FB023201200C4693E792
:1019D00000230134059319460A26204610F8012BEE
:1019E000303A092A03D9002BC8D00591C6E706FB77
:1019F000012101230446F0E703AB00932A46124B72
:101A000004A93846AFF30080B0F1FF3F8046D6D13D
:101A1000AB895B0688D4099888E703AB00932A4614
:101A2000094B04A9384600F033FBEDE7A026000877
:101A3000E0260008C026000880260008E6260008E8
:101A4000EA260008000000000F18000838B5064C10
:101A5000002305460846236000F08AFC431C02D19F
:101A6000236803B12B6038BD6001002010B50C461F
:101A7000B1F90E1000F020FC0028ABBF636DA38904
:101A80001B1823F48053ACBF6365A38110BD2DE9FF
:101A9000F0411F468B89DB0505460C46164605D5E9
:101AA00002230022B1F90E1000F0B6F9A389B4F9AF
:101AB0000E1023F48053A38132463B462846BDE8EE
:101AC000F04100F069B810B50C46B1F90E1000F005
:101AD000A3F9431CA38915BF606523F4805343F425
:101AE0008053A38118BFA38110BDB1F90E1000F07F
:101AF000D3B80000F8B50E461446054618B1836900
:101B00000BB9FFF789FD214B9C422BD16C68A3696F
:101B1000A360A3891A072FD523696BB323692068B3
:101B2000C01A6369F6B28342374604DC2146284670
:101B300000F048F930BBA368013BA36023685A1C3E
:101B400022601E7063690130834204D0A389DB07E1
:101B500006D50A2E04D12146284600F033F988B96B
:101B60003846F8BD0A4B9C4201D1AC68CFE7094B1F
:101B70009C4208BFEC68CAE72146284600F01EF8E0
:101B80000028CBD04FF0FF37EAE700BFA0260008BF
:101B9000C02600088026000838B5074C05460846D0
:101BA0001146002222601A46FEF7FAFB431C02D1BE
:101BB000236803B12B6038BD60010020324B70B543
:101BC0001D6806460C4625B1AB6913B92846FFF7D8
:101BD00023FD2E4B9C420FD16C68B4F90C309AB2A5
:101BE00015072CD4D00611D40922326043F04003EB
:101BF000A3814FF0FF303EE0254B9C4201D1AC6801
:101C0000EBE7244B9C4208BFEC68E6E7510712D58E
:101C1000616B41B104F14403994202D0304600F0B7
:101C200073F900236363A38923F02403A3810023B2
:101C3000636023692360A38943F00803A3812369B8
:101C40004BB9A38903F42073B3F5007F03D0214679
:101C5000304600F017F9A28912F001030CD00023DE
:101C6000A36063695B42A361236953B9B4F90C3083
:101C700013F08000BAD170BD920758BF6369A360AA
:101C8000F2E70020F7E700BF0C000020A0260008C4
:101C9000C02600088026000838B5064C00230546FB
:101CA0000846236000F03CFB431C02D1236803B1CB
:101CB0002B6038BD600100208A892DE9F04105467E
:101CC00010070C4658D44B68002B05DC0B6C002B1E
:101CD00002DC0020BDE8F081E66A002EF9D0002386
:101CE00012F480522F682B6032D0606DA3895A079E
:101CF00005D56368C01A636B0BB1236CC01A00234F
:101D00000246E66A216A2846B047431CA38906D1E9
:101D100029681D292CD82A4ACA40D60728D500226E
:101D20006260D9042269226004D5421C01D12B686B
:101D300003B96065616B2F600029CAD004F14403C8
:101D4000994202D0284600F0DFF800206063C1E726
:101D5000216A01232846B047411CC7D12B68002BBC
:101D6000C4D01D2B01D0162B01D12F60B1E7A38960
:101D700043F04003A381ADE70F69002FA9D093077B
:101D80000E6808BF4B690F6018BF0023A6EB070859
:101D90008B60B8F1000F9CDD43463A46216AA66A83
:101DA0002846B047002806DCA38943F04003A381FE
:101DB0004FF0FF308EE70744A8EB0008E9E700BFCB
:101DC0000100402038B50B6905460C46DBB118B15F
:101DD00083690BB9FFF720FC0C4B9C4209D16C685E
:101DE000B4F90C307BB121462846BDE83840FFF7F6
:101DF00063BF074B9C4201D1AC68F1E7054B9C42A5
:101E000008BFEC68ECE7002038BD00BFA026000842
:101E1000C02600088026000838B5074C054608464D
:101E20001146002222601A4600F092FA431C02D1A9
:101E3000236803B12B6038BD6001002070B50E46E9
:101E4000B1F90E10002996B014461D4607DA00239A
:101E50002B60B3891A0610D44FF480630EE06A46F3
:101E600000F03CFA0028F2DB019A02F47042A2F57D
:101E700000535A425A412A60EEE740230020236073
:101E800016B070BD8B8973B59D0706460C4607D505
:101E900004F14703236023610123636102B070BD35
:101EA00001AB6A46FFF7CAFF009905463046FFF7C7
:101EB0003DFC48B9B4F90C309A05EFD423F0030384
:101EC00043F00203A381E3E70D4BB362A3892060D3
:101ED00043F08003A381009B6361019B20615BB1A0
:101EE000B4F90E10304600F00BFA28B1A38923F0A4
:101EF000030343F00103A381A3891D43A581CDE71B
:101F0000E11500087047704738B50546002945D0EF
:101F100051F8043C0C1F002BB8BFE418FFF7F2FF88
:101F20001F4A1368104633B9636014602846BDE841
:101F30003840FFF7E8BFA3420CD9216862189342EA
:101F400004BF1A685B68636004BF521822600460B3
:101F5000ECE713465A680AB1A242FAD91968581830
:101F6000A0420BD120680144581882421960DDD18B
:101F7000106852685A6001441960D7E702D90C23EF
:101F80002B60D3E7206821188A4204BF1168526889
:101F9000626004BF091821605C60C7E738BD00BFFC
:101FA0008C0000202DE9F04791461F468A680B6996
:101FB000DDF820809342B8BF1346C9F8003091F88D
:101FC000432006460C4612B10133C9F8003023689D
:101FD000990642BFD9F800300233C9F800302568AD
:101FE00015F0060507D104F1190AE368D9F80020B5
:101FF0009B1AAB4228DC94F843302268003318BFA8
:10200000012392062DD404F1430239463046C047DD
:10201000013020D02368E568D9F8002003F00603DA
:10202000042B08BFAD1AA36822690CBF25EAE57529
:1020300000259342C4BF9B1AED184FF000091A34D3
:102040004D451AD1002008E001235246394630465A
:10205000C047013003D14FF0FF30BDE8F0870135B4
:10206000C3E7E1185A1C302081F84300224494F859
:10207000451082F843100233C5E701232246394652
:102080003046C0470130E6D009F10109D8E7000029
:102090002DE9F04306460C4601F14300097E85B068
:1020A0006E29984617460C9B00F0BA8024D8632905
:1020B00039D00AD8002900F0C380582900F0918057
:1020C00004F1420584F8421035E0642901D0692901
:1020D000F6D125681A6815F0800F02F104012CD0A2
:1020E00012681960002A03DA2D23524284F8433023
:1020F000DFF8BCC10A233FE0732900F0A58008D8AF
:102100006F2921D07029DBD1226842F020022260A1
:1021100003E0752918D07829D2D1782284F8452097
:10212000DFF890C161E01A68111D1960136884F826
:10213000423004F14205012393E01268196015F062
:10214000400F18BF12B2CDE7D4F800C01A681CF0D7
:10215000800F02F104051D6001D0126803E01CF03D
:10216000400FFAD01288DFF848C16F290CBF08234E
:102170000A23002184F843106568A560002DA2BFE2
:10218000216821F0040121600AB9002D46D00546DE
:10219000B2FBF3F103FB112E93421CF80EE005F89D
:1021A00001ED39D9082B0BD12368DA0708D523694B
:1021B00062689A42DEBF302305F8013C05F1FF3525
:1021C000401B2061CDF800803B4603AA21463046E3
:1021D000FFF7E8FE013049D14FF0FF3005B0BDE810
:1021E000F083DFF8CCC084F845101D68216855F8ED
:1021F000042B1D600D060BD5CD0744BF41F0200117
:1022000021601AB9236823F0200323601023B0E76C
:102210004B0648BF92B2EFE70A46B9E70546C1E769
:102220001A68D4F800C06169151D1D601CF0800F8C
:10223000136801D0196003E01CF0400FFAD0198038
:10224000002323610546BDE71A68111D1960156852
:10225000626800212846FDF7A3FF08B1401B6060BB
:1022600063682361002384F84330ABE723692A467F
:1022700039463046C0470130AED023689B0713D49F
:10228000E068039B9842B8BF1846A7E701234A4677
:1022900039463046C04701309ED00135E368039A85
:1022A0009B1AAB42F2DCEBE7002504F11909F5E7D4
:1022B000F12600080227000838B5074C05460846F5
:1022C0001146002222601A4600F04AF8431C02D14F
:1022D000236803B12B6038BD6001002038B5074C7E
:1022E0000023054608461146236000F021F8431CF0
:1022F00002D1236803B12B6038BD00BF600100200C
:1023000038B5064C002305460846236000F018F84F
:10231000431C02D1236803B12B6038BD600100204B
:10232000024B58221A604FF0FF30704760010020C6
:10233000024B58221A604FF0FF30704760010020B6
:10234000024B58221A600020704700BF6001002035
:10235000024B58221A604FF0FF3070476001002096
:10236000024B58221A604FF0FF3070476001002086
:10237000044A05491368002B08BF0B461844106037
:102380001846704794000020680100202DE9F04FA6
:10239000099F154604468E461E46002B40F0CC8011
:1023A0008A42B2FA82FC4CD9BCF1000F0BD0CCF1BE
:1023B000200801FA0CFE20FA08F802FA0CF548EAA7
:1023C0000E0E00FA0CF44FEA15491FFA85F8BEFB11
:1023D000F9FA210C09FB1AE30AFB08FB41EA034363
:1023E0009B452AD9EB180AF1FF3004D29B4502D94C
:1023F000AAF102002B44A3EB0B03A4B2B3FBF9F246
:1024000009FB123302FB08F844EA0344A04516D93D
:102410002C1902F1FF3303D2A04501D9931E2C449D
:10242000A4EB080443EA004027B124FA0CF400238B
:102430003C607B603146BDE8F08F5046DBE71346D9
:10244000EEE702B9FFDEBCF1000F2ED18B1A012698
:102450004FEA154EAAB2B3FBFEF8210C0EFB18335F
:1024600008FB02F941EA0343994561D9EB1808F1E9
:10247000FF3004D2994502D9A8F102002B44A3EB06
:102480000903A4B2B3FBFEF10EFB11334A4344EA45
:102490000344A2424ED92C1901F1FF3303D2A242C8
:1024A00001D98B1E2C44A41ABCE7CCF1200E02FAF1
:1024B0000CF521FA0EF901FA0CF320FA0EFE4EEAA1
:1024C00003034FEA154800FA0CF4B9FBF8F11FFAC0
:1024D00085FE08FB1192180C01FB0EF640EA024241
:1024E000964221D9AA1801F1FF3003D2964201D9B0
:1024F000881E2A44921B9BB2B2FBF8F908FB1922F2
:1025000009FB0EFE43EA02439E450FD9EB1809F181
:10251000FF3604D29E4502D9A9F102062B44A3EB53
:102520000E0346EA004693E70846E3E74E46F6E721
:102530004046A4E70B46B6E78B4205D90FB1C7E981
:1025400000010026304675E7B3FA83FCBCF1000FAA
:102550000FD18B4201D3824209D8841A61EB030E5A
:102560000120002F6AD0C7E9004E002662E76046CE
:10257000F7E7CCF1200E03FA0CF322FA0EF521FA5C
:102580000EF41D4301FA0CF320FA0EF10B434FEA4F
:10259000154A00FA0CF6B4FBFAF91FFA85F80AFBA3
:1025A00019401C0C09FB08F144EA0044A14202FA5C
:1025B0000CF23FD92C1909F1FF3004D2A14202D903
:1025C000A9F102002C44641A9BB2B4FBFAF90AFB8D
:1025D000194409FB08F843EA044188452CD96918D5
:1025E00009F1FF3304D2884502D9A9F10203294435
:1025F00043EA0040A1EB0801A0FB02894945C2461D
:102600004C4602D306D1464504D2B8EB020A69EB28
:102610000504013897B1B6EB0A0361EB040606FA2C
:102620000EFE23FA0CF34EEA030326FA0CF6C7E972
:1026300000369AE74846C6E74B46D9E73E46F9E6F4
:10264000F8B500BFF8BC08BC9E467047F8B500BF9F
:08265000F8BC08BC9E4670476F
:10265800256C6420256C64200A000000000000003E
:10266800000000000102030406070809000000003A
:102678000102030410000020000000000000000018
:102688000000000000000000000000000000000042
:102698000000000000000000000000000000000032
:1026A8000000000000000000000000000000000022
:1026B8000000000000000000000000000000000012
:1026C8000000000000000000000000000000000002
:1026D8000000000000000000232D302B2000686C53
:1026E8004C0065666745464700303132333435362D
:1026F8003738394142434445460030313233343566
:0C27080036373839616263646566000092
:0827140078FCFF7F01000000CA
:04271C009902000816
:042720007502000836
:1027240001000000100000000024F400100000204C
:1027340000000000A0260008C0260008802600082B
:102744000000000000000000000000000000000085
:102754000000000000000000000000000000000075
:102764000000000000000000000000000000000065
:102774000000000000000000000000000000000055
:102784000000000000000000000000000000000045
:04000005080014BD1E
:00000001FF
